{
  "contractName": "ClassContract",
  "abi": [
    {
      "constant": true,
      "inputs": [],
      "name": "universityIdGenerator",
      "outputs": [
        {
          "name": "",
          "type": "uint256"
        }
      ],
      "payable": false,
      "stateMutability": "view",
      "type": "function"
    },
    {
      "constant": false,
      "inputs": [],
      "name": "renounceOwnership",
      "outputs": [],
      "payable": false,
      "stateMutability": "nonpayable",
      "type": "function"
    },
    {
      "constant": true,
      "inputs": [],
      "name": "owner",
      "outputs": [
        {
          "name": "",
          "type": "address"
        }
      ],
      "payable": false,
      "stateMutability": "view",
      "type": "function"
    },
    {
      "constant": true,
      "inputs": [],
      "name": "isOwner",
      "outputs": [
        {
          "name": "",
          "type": "bool"
        }
      ],
      "payable": false,
      "stateMutability": "view",
      "type": "function"
    },
    {
      "constant": true,
      "inputs": [
        {
          "name": "",
          "type": "uint256"
        }
      ],
      "name": "universities",
      "outputs": [
        {
          "name": "name",
          "type": "string"
        },
        {
          "name": "description",
          "type": "string"
        },
        {
          "name": "website",
          "type": "string"
        },
        {
          "name": "phoneNumber",
          "type": "string"
        },
        {
          "name": "open",
          "type": "bool"
        },
        {
          "name": "memberIdGenerator",
          "type": "uint256"
        }
      ],
      "payable": false,
      "stateMutability": "view",
      "type": "function"
    },
    {
      "constant": false,
      "inputs": [
        {
          "name": "newOwner",
          "type": "address"
        }
      ],
      "name": "transferOwnership",
      "outputs": [],
      "payable": false,
      "stateMutability": "nonpayable",
      "type": "function"
    },
    {
      "anonymous": false,
      "inputs": [
        {
          "indexed": false,
          "name": "name",
          "type": "string"
        },
        {
          "indexed": false,
          "name": "desc",
          "type": "string"
        },
        {
          "indexed": false,
          "name": "universityId",
          "type": "uint256"
        }
      ],
      "name": "LogUniversityAdded",
      "type": "event"
    },
    {
      "anonymous": false,
      "inputs": [
        {
          "indexed": true,
          "name": "previousOwner",
          "type": "address"
        },
        {
          "indexed": true,
          "name": "newOwner",
          "type": "address"
        }
      ],
      "name": "OwnershipTransferred",
      "type": "event"
    },
    {
      "constant": false,
      "inputs": [
        {
          "name": "_name",
          "type": "string"
        },
        {
          "name": "_description",
          "type": "string"
        },
        {
          "name": "_website",
          "type": "string"
        },
        {
          "name": "_phoneNumber",
          "type": "string"
        }
      ],
      "name": "addUniversity",
      "outputs": [
        {
          "name": "",
          "type": "uint256"
        }
      ],
      "payable": false,
      "stateMutability": "nonpayable",
      "type": "function"
    },
    {
      "constant": false,
      "inputs": [
        {
          "name": "_ownerAddr",
          "type": "address"
        },
        {
          "name": "_fullName",
          "type": "string"
        },
        {
          "name": "_email",
          "type": "string"
        },
        {
          "name": "universityId",
          "type": "uint256"
        }
      ],
      "name": "addUniversityOwnerRoles",
      "outputs": [],
      "payable": false,
      "stateMutability": "nonpayable",
      "type": "function"
    },
    {
      "constant": false,
      "inputs": [
        {
          "name": "_addr",
          "type": "address"
        },
        {
          "name": "_name",
          "type": "string"
        },
        {
          "name": "_email",
          "type": "string"
        },
        {
          "name": "_universityId",
          "type": "uint256"
        },
        {
          "name": "_memberRole",
          "type": "string"
        }
      ],
      "name": "addUniversityMember",
      "outputs": [
        {
          "name": "",
          "type": "bool"
        }
      ],
      "payable": false,
      "stateMutability": "nonpayable",
      "type": "function"
    },
    {
      "constant": true,
      "inputs": [],
      "name": "getAllUniversities",
      "outputs": [
        {
          "components": [
            {
              "name": "name",
              "type": "string"
            },
            {
              "name": "description",
              "type": "string"
            },
            {
              "name": "website",
              "type": "string"
            },
            {
              "name": "phoneNumber",
              "type": "string"
            },
            {
              "name": "open",
              "type": "bool"
            }
          ],
          "name": "",
          "type": "tuple[]"
        }
      ],
      "payable": false,
      "stateMutability": "view",
      "type": "function"
    },
    {
      "constant": false,
      "inputs": [
        {
          "name": "_teachers",
          "type": "address[]"
        }
      ],
      "name": "addTeacherRoles",
      "outputs": [],
      "payable": false,
      "stateMutability": "nonpayable",
      "type": "function"
    },
    {
      "constant": false,
      "inputs": [
        {
          "name": "_students",
          "type": "address[]"
        }
      ],
      "name": "addStudentRoles",
      "outputs": [],
      "payable": false,
      "stateMutability": "nonpayable",
      "type": "function"
    },
    {
      "constant": true,
      "inputs": [
        {
          "name": "amount",
          "type": "uint256"
        }
      ],
      "name": "areFeesEnough",
      "outputs": [
        {
          "name": "",
          "type": "bool"
        }
      ],
      "payable": false,
      "stateMutability": "pure",
      "type": "function"
    },
    {
      "constant": false,
      "inputs": [],
      "name": "payFees",
      "outputs": [],
      "payable": true,
      "stateMutability": "payable",
      "type": "function"
    },
    {
      "constant": false,
      "inputs": [
        {
          "name": "student",
          "type": "address"
        },
        {
          "name": "grade",
          "type": "bool"
        }
      ],
      "name": "gradeStudent",
      "outputs": [],
      "payable": false,
      "stateMutability": "nonpayable",
      "type": "function"
    },
    {
      "constant": true,
      "inputs": [
        {
          "name": "account",
          "type": "address"
        }
      ],
      "name": "hasPaidFees",
      "outputs": [
        {
          "name": "",
          "type": "bool"
        }
      ],
      "payable": false,
      "stateMutability": "view",
      "type": "function"
    },
    {
      "constant": false,
      "inputs": [],
      "name": "terminateClass",
      "outputs": [],
      "payable": false,
      "stateMutability": "nonpayable",
      "type": "function"
    },
    {
      "constant": true,
      "inputs": [
        {
          "name": "account",
          "type": "address"
        }
      ],
      "name": "getBalance",
      "outputs": [
        {
          "name": "",
          "type": "uint256"
        }
      ],
      "payable": false,
      "stateMutability": "view",
      "type": "function"
    }
  ],
  "bytecode": "0x60806040526100126100d260201b60201c565b6000806101000a81548173ffffffffffffffffffffffffffffffffffffffff021916908373ffffffffffffffffffffffffffffffffffffffff1602179055506000809054906101000a900473ffffffffffffffffffffffffffffffffffffffff1673ffffffffffffffffffffffffffffffffffffffff16600073ffffffffffffffffffffffffffffffffffffffff167f8be0079c531659141344cd1fd0a4f28419497f9722a3daafe3b4186f6b6457e060405160405180910390a36100da565b600033905090565b612d21806100e96000396000f3fe6080604052600436106101095760003560e01c80638da5cb5b11610095578063bfc2faa711610064578063bfc2faa71461034d578063e13f8d6614610364578063f2fde38b146103a1578063f597d994146103ca578063f8b2cb4f146103f557610109565b80638da5cb5b146102785780638f32d59b146102a35780639c38f65f146102ce578063b28064d81461031057610109565b806336d6a6fe116100dc57806336d6a6fe146101b4578063569fccaf146101dd57806362779e151461021a578063715018a6146102245780637d55b3e31461023b57610109565b8063177ead101461010e5780631f0ac6da1461013757806326ff987214610160578063360a02ba1461018b575b600080fd5b34801561011a57600080fd5b5061013560048036036101309190810190611edd565b610432565b005b34801561014357600080fd5b5061015e60048036036101599190810190611f19565b610533565b005b34801561016c57600080fd5b50610175610721565b6040516101829190612af2565b60405180910390f35b34801561019757600080fd5b506101b260048036036101ad919081019061206b565b610727565b005b3480156101c057600080fd5b506101db60048036036101d6919081019061206b565b6107b5565b005b3480156101e957600080fd5b5061020460048036036101ff9190810190611fac565b610843565b60405161021191906128b5565b60405180910390f35b610222610c6c565b005b34801561023057600080fd5b50610239610df6565b005b34801561024757600080fd5b50610262600480360361025d9190810190612198565b610efc565b60405161026f91906128b5565b60405180910390f35b34801561028457600080fd5b5061028d610f11565b60405161029a9190612878565b60405180910390f35b3480156102af57600080fd5b506102b8610f3a565b6040516102c591906128b5565b60405180910390f35b3480156102da57600080fd5b506102f560048036036102f09190810190612198565b610f98565b60405161030796959493929190612915565b60405180910390f35b34801561031c57600080fd5b50610337600480360361033291908101906120d5565b611241565b6040516103449190612af2565b60405180910390f35b34801561035957600080fd5b506103626113dd565b005b34801561037057600080fd5b5061038b60048036036103869190810190611eb4565b61143d565b60405161039891906128b5565b60405180910390f35b3480156103ad57600080fd5b506103c860048036036103c39190810190611eb4565b611558565b005b3480156103d657600080fd5b506103df6115ab565b6040516103ec9190612893565b60405180910390f35b34801561040157600080fd5b5061041c60048036036104179190810190611eb4565b61198a565b6040516104299190612af2565b60405180910390f35b6104463360026119ab90919063ffffffff16565b610485576040517f08c379a000000000000000000000000000000000000000000000000000000000815260040161047c906129d2565b60405180910390fd5b6104998260036119ab90919063ffffffff16565b6104d8576040517f08c379a00000000000000000000000000000000000000000000000000000000081526004016104cf90612a52565b60405180910390fd5b80600760008473ffffffffffffffffffffffffffffffffffffffff1673ffffffffffffffffffffffffffffffffffffffff16815260200190815260200160002060006101000a81548160ff0219169083151502179055505050565b61053b610f3a565b61057a576040517f08c379a000000000000000000000000000000000000000000000000000000000815260040161057190612a72565b60405180910390fd5b83600073ffffffffffffffffffffffffffffffffffffffff168173ffffffffffffffffffffffffffffffffffffffff1614156105eb576040517f08c379a00000000000000000000000000000000000000000000000000000000081526004016105e290612992565b60405180910390fd5b6105ff856001611a7390919063ffffffff16565b610607611c51565b8481600001819052508381602001819052506005600084815260200190815260200160002060050154816040018181525050806005600085815260200190815260200160002060060160008873ffffffffffffffffffffffffffffffffffffffff1673ffffffffffffffffffffffffffffffffffffffff16815260200190815260200160002060008201518160000190805190602001906106a9929190611c7b565b5060208201518160010190805190602001906106c6929190611c7b565b506040820151816002015560608201518160030160006101000a81548160ff02191690831515021790555090505060016005600085815260200190815260200160002060050160008282540192505081905550505050505050565b60045481565b61072f610f3a565b61076e576040517f08c379a000000000000000000000000000000000000000000000000000000000815260040161076590612a72565b60405180910390fd5b60008090505b81518110156107b1576107a482828151811061078c57fe5b60200260200101516002611a7390919063ffffffff16565b8080600101915050610774565b5050565b6107bd610f3a565b6107fc576040517f08c379a00000000000000000000000000000000000000000000000000000000081526004016107f390612a72565b60405180910390fd5b60008090505b815181101561083f5761083282828151811061081a57fe5b60200260200101516003611a7390919063ffffffff16565b8080600101915050610802565b5050565b600085600073ffffffffffffffffffffffffffffffffffffffff168173ffffffffffffffffffffffffffffffffffffffff1614156108b6576040517f08c379a00000000000000000000000000000000000000000000000000000000081526004016108ad90612992565b60405180910390fd5b83600115156005600083815260200190815260200160002060060160003373ffffffffffffffffffffffffffffffffffffffff1673ffffffffffffffffffffffffffffffffffffffff16815260200190815260200160002060030160009054906101000a900460ff16151514610961576040517f08c379a000000000000000000000000000000000000000000000000000000000815260040161095890612ad2565b60405180910390fd5b6109753360016119ab90919063ffffffff16565b6109b4576040517f08c379a00000000000000000000000000000000000000000000000000000000081526004016109ab90612a12565b60405180910390fd5b6109bc611c51565b878160000181905250868160200181905250600560008781526020019081526020016000206005015481604001818152505060016005600088815260200190815260200160002060050160008282540192505081905550604051602001610a2290612863565b6040516020818303038152906040528051906020012085604051602001610a499190612837565b604051602081830303815290604052805190602001201415610b3957610a79896002611a7390919063ffffffff16565b806005600088815260200190815260200160002060070160008b73ffffffffffffffffffffffffffffffffffffffff1673ffffffffffffffffffffffffffffffffffffffff1681526020019081526020016000206000820151816000019080519060200190610ae9929190611c7b565b506020820151816001019080519060200190610b06929190611c7b565b506040820151816002015560608201518160030160006101000a81548160ff021916908315150217905550905050610c5c565b604051602001610b489061284e565b6040516020818303038152906040528051906020012085604051602001610b6f9190612837565b604051602081830303815290604052805190602001201415610c5b57610b9f896003611a7390919063ffffffff16565b806005600088815260200190815260200160002060080160008b73ffffffffffffffffffffffffffffffffffffffff1673ffffffffffffffffffffffffffffffffffffffff1681526020019081526020016000206000820151816000019080519060200190610c0f929190611c7b565b506020820151816001019080519060200190610c2c929190611c7b565b506040820151816002015560608201518160030160006101000a81548160ff0219169083151502179055509050505b5b6001935050505095945050505050565b610c803360036119ab90919063ffffffff16565b610cbf576040517f08c379a0000000000000000000000000000000000000000000000000000000008152600401610cb690612a32565b60405180910390fd5b3073ffffffffffffffffffffffffffffffffffffffff16637d55b3e3346040518263ffffffff1660e01b8152600401610cf89190612af2565b60206040518083038186803b158015610d1057600080fd5b505afa158015610d24573d6000803e3d6000fd5b505050506040513d601f19601f82011682018060405250610d4891908101906120ac565b15610df457610d55610f11565b73ffffffffffffffffffffffffffffffffffffffff166108fc349081150290604051600060405180830381858888f19350505050158015610d9a573d6000803e3d6000fd5b506001600660003373ffffffffffffffffffffffffffffffffffffffff1673ffffffffffffffffffffffffffffffffffffffff16815260200190815260200160002060006101000a81548160ff0219169083151502179055505b565b610dfe610f3a565b610e3d576040517f08c379a0000000000000000000000000000000000000000000000000000000008152600401610e3490612a72565b60405180910390fd5b600073ffffffffffffffffffffffffffffffffffffffff166000809054906101000a900473ffffffffffffffffffffffffffffffffffffffff1673ffffffffffffffffffffffffffffffffffffffff167f8be0079c531659141344cd1fd0a4f28419497f9722a3daafe3b4186f6b6457e060405160405180910390a360008060006101000a81548173ffffffffffffffffffffffffffffffffffffffff021916908373ffffffffffffffffffffffffffffffffffffffff160217905550565b6000673782dace9d9000008210159050919050565b60008060009054906101000a900473ffffffffffffffffffffffffffffffffffffffff16905090565b60008060009054906101000a900473ffffffffffffffffffffffffffffffffffffffff1673ffffffffffffffffffffffffffffffffffffffff16610f7c611b1b565b73ffffffffffffffffffffffffffffffffffffffff1614905090565b6005602052806000526040600020600091509050806000018054600181600116156101000203166002900480601f0160208091040260200160405190810160405280929190818152602001828054600181600116156101000203166002900480156110445780601f1061101957610100808354040283529160200191611044565b820191906000526020600020905b81548152906001019060200180831161102757829003601f168201915b505050505090806001018054600181600116156101000203166002900480601f0160208091040260200160405190810160405280929190818152602001828054600181600116156101000203166002900480156110e25780601f106110b7576101008083540402835291602001916110e2565b820191906000526020600020905b8154815290600101906020018083116110c557829003601f168201915b505050505090806002018054600181600116156101000203166002900480601f0160208091040260200160405190810160405280929190818152602001828054600181600116156101000203166002900480156111805780601f1061115557610100808354040283529160200191611180565b820191906000526020600020905b81548152906001019060200180831161116357829003601f168201915b505050505090806003018054600181600116156101000203166002900480601f01602080910402602001604051908101604052809291908181526020018280546001816001161561010002031660029004801561121e5780601f106111f35761010080835404028352916020019161121e565b820191906000526020600020905b81548152906001019060200180831161120157829003601f168201915b5050505050908060040160009054906101000a900460ff16908060050154905086565b600061124b610f3a565b61128a576040517f08c379a000000000000000000000000000000000000000000000000000000000815260040161128190612a72565b60405180910390fd5b611292611cfb565b85816000018190525084816020018190525083816040018190525082816060018190525060018160800190151590811515815250508060056000600454815260200190815260200160002060008201518160000190805190602001906112f9929190611c7b565b506020820151816001019080519060200190611316929190611c7b565b506040820151816002019080519060200190611333929190611c7b565b506060820151816003019080519060200190611350929190611c7b565b5060808201518160040160006101000a81548160ff02191690831515021790555060a0820151816005015590505060016004600082825401925050819055507f17bd20564888962589be0906f760255071a0c85d66584f4e1f6489591c14f83c86866004546040516113c4939291906128d0565b60405180910390a1600160045403915050949350505050565b6113e5610f3a565b611424576040517f08c379a000000000000000000000000000000000000000000000000000000000815260040161141b90612a72565b60405180910390fd5b3373ffffffffffffffffffffffffffffffffffffffff16ff5b600081600073ffffffffffffffffffffffffffffffffffffffff168173ffffffffffffffffffffffffffffffffffffffff1614156114b0576040517f08c379a00000000000000000000000000000000000000000000000000000000081526004016114a790612992565b60405180910390fd5b6114c48360036119ab90919063ffffffff16565b611503576040517f08c379a00000000000000000000000000000000000000000000000000000000081526004016114fa90612ab2565b60405180910390fd5b600660008473ffffffffffffffffffffffffffffffffffffffff1673ffffffffffffffffffffffffffffffffffffffff16815260200190815260200160002060009054906101000a900460ff16915050919050565b611560610f3a565b61159f576040517f08c379a000000000000000000000000000000000000000000000000000000000815260040161159690612a72565b60405180910390fd5b6115a881611b23565b50565b6060806004546040519080825280602002602001820160405280156115ea57816020015b6115d7611d33565b8152602001906001900390816115cf5790505b50905060008090505b600454811015611982576005600060045481526020019081526020016000206000018054600181600116156101000203166002900480601f0160208091040260200160405190810160405280929190818152602001828054600181600116156101000203166002900480156116a95780601f1061167e576101008083540402835291602001916116a9565b820191906000526020600020905b81548152906001019060200180831161168c57829003601f168201915b50505050508282815181106116ba57fe5b6020026020010151600001819052506005600060045481526020019081526020016000206001018054600181600116156101000203166002900480601f0160208091040260200160405190810160405280929190818152602001828054600181600116156101000203166002900480156117755780601f1061174a57610100808354040283529160200191611775565b820191906000526020600020905b81548152906001019060200180831161175857829003601f168201915b505050505082828151811061178657fe5b6020026020010151602001819052506005600060045481526020019081526020016000206002018054600181600116156101000203166002900480601f0160208091040260200160405190810160405280929190818152602001828054600181600116156101000203166002900480156118415780601f1061181657610100808354040283529160200191611841565b820191906000526020600020905b81548152906001019060200180831161182457829003601f168201915b505050505082828151811061185257fe5b6020026020010151604001819052506005600060045481526020019081526020016000206003018054600181600116156101000203166002900480601f01602080910402602001604051908101604052809291908181526020018280546001816001161561010002031660029004801561190d5780601f106118e25761010080835404028352916020019161190d565b820191906000526020600020905b8154815290600101906020018083116118f057829003601f168201915b505050505082828151811061191e57fe5b60200260200101516060018190525060056000600454815260200190815260200160002060040160009054906101000a900460ff1682828151811061195f57fe5b6020026020010151608001901515908115158152505080806001019150506115f3565b508091505090565b60008173ffffffffffffffffffffffffffffffffffffffff16319050919050565b60008073ffffffffffffffffffffffffffffffffffffffff168273ffffffffffffffffffffffffffffffffffffffff161415611a1c576040517f08c379a0000000000000000000000000000000000000000000000000000000008152600401611a1390612a92565b60405180910390fd5b8260000160008373ffffffffffffffffffffffffffffffffffffffff1673ffffffffffffffffffffffffffffffffffffffff16815260200190815260200160002060009054906101000a900460ff16905092915050565b611a7d82826119ab565b15611abd576040517f08c379a0000000000000000000000000000000000000000000000000000000008152600401611ab4906129b2565b60405180910390fd5b60018260000160008373ffffffffffffffffffffffffffffffffffffffff1673ffffffffffffffffffffffffffffffffffffffff16815260200190815260200160002060006101000a81548160ff0219169083151502179055505050565b600033905090565b600073ffffffffffffffffffffffffffffffffffffffff168173ffffffffffffffffffffffffffffffffffffffff161415611b93576040517f08c379a0000000000000000000000000000000000000000000000000000000008152600401611b8a906129f2565b60405180910390fd5b8073ffffffffffffffffffffffffffffffffffffffff166000809054906101000a900473ffffffffffffffffffffffffffffffffffffffff1673ffffffffffffffffffffffffffffffffffffffff167f8be0079c531659141344cd1fd0a4f28419497f9722a3daafe3b4186f6b6457e060405160405180910390a3806000806101000a81548173ffffffffffffffffffffffffffffffffffffffff021916908373ffffffffffffffffffffffffffffffffffffffff16021790555050565b60405180608001604052806060815260200160608152602001600081526020016000151581525090565b828054600181600116156101000203166002900490600052602060002090601f016020900481019282601f10611cbc57805160ff1916838001178555611cea565b82800160010185558215611cea579182015b82811115611ce9578251825591602001919060010190611cce565b5b509050611cf79190611d64565b5090565b6040518060c0016040528060608152602001606081526020016060815260200160608152602001600015158152602001600081525090565b6040518060a00160405280606081526020016060815260200160608152602001606081526020016000151581525090565b611d8691905b80821115611d82576000816000905550600101611d6a565b5090565b90565b600081359050611d9881612ca2565b92915050565b600082601f830112611daf57600080fd5b8135611dc2611dbd82612b3a565b612b0d565b91508181835260208401935060208101905083856020840282011115611de757600080fd5b60005b83811015611e175781611dfd8882611d89565b845260208401935060208301925050600181019050611dea565b5050505092915050565b600081359050611e3081612cb9565b92915050565b600081519050611e4581612cb9565b92915050565b600082601f830112611e5c57600080fd5b8135611e6f611e6a82612b62565b612b0d565b91508082526020830160208301858383011115611e8b57600080fd5b611e96838284612c4f565b50505092915050565b600081359050611eae81612cd0565b92915050565b600060208284031215611ec657600080fd5b6000611ed484828501611d89565b91505092915050565b60008060408385031215611ef057600080fd5b6000611efe85828601611d89565b9250506020611f0f85828601611e21565b9150509250929050565b60008060008060808587031215611f2f57600080fd5b6000611f3d87828801611d89565b945050602085013567ffffffffffffffff811115611f5a57600080fd5b611f6687828801611e4b565b935050604085013567ffffffffffffffff811115611f8357600080fd5b611f8f87828801611e4b565b9250506060611fa087828801611e9f565b91505092959194509250565b600080600080600060a08688031215611fc457600080fd5b6000611fd288828901611d89565b955050602086013567ffffffffffffffff811115611fef57600080fd5b611ffb88828901611e4b565b945050604086013567ffffffffffffffff81111561201857600080fd5b61202488828901611e4b565b935050606061203588828901611e9f565b925050608086013567ffffffffffffffff81111561205257600080fd5b61205e88828901611e4b565b9150509295509295909350565b60006020828403121561207d57600080fd5b600082013567ffffffffffffffff81111561209757600080fd5b6120a384828501611d9e565b91505092915050565b6000602082840312156120be57600080fd5b60006120cc84828501611e36565b91505092915050565b600080600080608085870312156120eb57600080fd5b600085013567ffffffffffffffff81111561210557600080fd5b61211187828801611e4b565b945050602085013567ffffffffffffffff81111561212e57600080fd5b61213a87828801611e4b565b935050604085013567ffffffffffffffff81111561215757600080fd5b61216387828801611e4b565b925050606085013567ffffffffffffffff81111561218057600080fd5b61218c87828801611e4b565b91505092959194509250565b6000602082840312156121aa57600080fd5b60006121b884828501611e9f565b91505092915050565b60006121cd838361279d565b905092915050565b6121de81612c07565b82525050565b60006121ef82612b9b565b6121f98185612bc9565b93508360208202850161220b85612b8e565b8060005b85811015612247578484038952815161222885826121c1565b945061223383612bbc565b925060208a0199505060018101905061220f565b50829750879550505050505092915050565b61226281612c19565b82525050565b61227181612c19565b82525050565b600061228282612bb1565b61228c8185612beb565b935061229c818560208601612c5e565b6122a581612c91565b840191505092915050565b60006122bb82612bb1565b6122c58185612bfc565b93506122d5818560208601612c5e565b80840191505092915050565b60006122ec82612ba6565b6122f68185612bda565b9350612306818560208601612c5e565b61230f81612c91565b840191505092915050565b600061232582612ba6565b61232f8185612beb565b935061233f818560208601612c5e565b61234881612c91565b840191505092915050565b6000612360602283612beb565b91507f414444524553532043414e4e4f5420424520544845205a45524f20414444524560008301527f53530000000000000000000000000000000000000000000000000000000000006020830152604082019050919050565b60006123c6601f83612beb565b91507f526f6c65733a206163636f756e7420616c72656164792068617320726f6c65006000830152602082019050919050565b6000612406601a83612beb565b91507f444f4553204e4f542048415645205445414348455220524f4c450000000000006000830152602082019050919050565b6000612446602683612beb565b91507f4f776e61626c653a206e6577206f776e657220697320746865207a65726f206160008301527f64647265737300000000000000000000000000000000000000000000000000006020830152604082019050919050565b60006124ac602383612beb565b91507f444f4553204e4f54204841564520554e4956455253495459204f574e4552205260008301527f4f4c4500000000000000000000000000000000000000000000000000000000006020830152604082019050919050565b6000612512600783612bfc565b91507f73747564656e74000000000000000000000000000000000000000000000000006000830152600782019050919050565b6000612552600783612bfc565b91507f74656163686572000000000000000000000000000000000000000000000000006000830152600782019050919050565b6000612592601a83612beb565b91507f444f4553204e4f5420484156452053545544454e5420524f4c450000000000006000830152602082019050919050565b60006125d2602183612beb565b91507f414444524553532050524f5649444544204953204e4f5420412053545544454e60008301527f54000000000000000000000000000000000000000000000000000000000000006020830152604082019050919050565b6000612638602083612beb565b91507f4f776e61626c653a2063616c6c6572206973206e6f7420746865206f776e65726000830152602082019050919050565b6000612678602283612beb565b91507f526f6c65733a206163636f756e7420697320746865207a65726f20616464726560008301527f73730000000000000000000000000000000000000000000000000000000000006020830152604082019050919050565b60006126de602183612beb565b91507f50726f7669646564206163636f756e74206973206e6f7420612073747564656e60008301527f74000000000000000000000000000000000000000000000000000000000000006020830152604082019050919050565b6000612744603783612beb565b91507f444f4553204e4f542042454c4f4e4720544f2054484520554e4956455253495460008301527f59204f574e455253204f5220495320494e4143544956450000000000000000006020830152604082019050919050565b600060a08301600083015184820360008601526127ba82826122e1565b915050602083015184820360208601526127d482826122e1565b915050604083015184820360408601526127ee82826122e1565b9150506060830151848203606086015261280882826122e1565b915050608083015161281d6080860182612259565b508091505092915050565b61283181612c45565b82525050565b600061284382846122b0565b915081905092915050565b600061285982612505565b9150819050919050565b600061286e82612545565b9150819050919050565b600060208201905061288d60008301846121d5565b92915050565b600060208201905081810360008301526128ad81846121e4565b905092915050565b60006020820190506128ca6000830184612268565b92915050565b600060608201905081810360008301526128ea8186612277565b905081810360208301526128fe8185612277565b905061290d6040830184612828565b949350505050565b600060c082019050818103600083015261292f818961231a565b90508181036020830152612943818861231a565b90508181036040830152612957818761231a565b9050818103606083015261296b818661231a565b905061297a6080830185612268565b61298760a0830184612828565b979650505050505050565b600060208201905081810360008301526129ab81612353565b9050919050565b600060208201905081810360008301526129cb816123b9565b9050919050565b600060208201905081810360008301526129eb816123f9565b9050919050565b60006020820190508181036000830152612a0b81612439565b9050919050565b60006020820190508181036000830152612a2b8161249f565b9050919050565b60006020820190508181036000830152612a4b81612585565b9050919050565b60006020820190508181036000830152612a6b816125c5565b9050919050565b60006020820190508181036000830152612a8b8161262b565b9050919050565b60006020820190508181036000830152612aab8161266b565b9050919050565b60006020820190508181036000830152612acb816126d1565b9050919050565b60006020820190508181036000830152612aeb81612737565b9050919050565b6000602082019050612b076000830184612828565b92915050565b6000604051905081810181811067ffffffffffffffff82111715612b3057600080fd5b8060405250919050565b600067ffffffffffffffff821115612b5157600080fd5b602082029050602081019050919050565b600067ffffffffffffffff821115612b7957600080fd5b601f19601f8301169050602081019050919050565b6000602082019050919050565b600081519050919050565b600081519050919050565b600081519050919050565b6000602082019050919050565b600082825260208201905092915050565b600082825260208201905092915050565b600082825260208201905092915050565b600081905092915050565b6000612c1282612c25565b9050919050565b60008115159050919050565b600073ffffffffffffffffffffffffffffffffffffffff82169050919050565b6000819050919050565b82818337600083830152505050565b60005b83811015612c7c578082015181840152602081019050612c61565b83811115612c8b576000848401525b50505050565b6000601f19601f8301169050919050565b612cab81612c07565b8114612cb657600080fd5b50565b612cc281612c19565b8114612ccd57600080fd5b50565b612cd981612c45565b8114612ce457600080fd5b5056fea265627a7a72305820f11c7ba1b9197bbcb7ce62ded5d4968012c2589369e5e64747ff03d299ad26d56c6578706572696d656e74616cf50037",
  "source": "pragma solidity ^0.5.0;\r\npragma experimental ABIEncoderV2;\r\n// added the experimental to try to return a struc in getAllUniversities\r\n\r\nimport \"openzeppelin-solidity/contracts/access/Roles.sol\";\r\nimport \"openzeppelin-solidity/contracts/ownership/Ownable.sol\";\r\n\r\n/*\r\nTo use with Remix:\r\nimport \"github.com/OpenZeppelin/openzeppelin-solidity/contracts/access/Roles.sol\";\r\nimport \"github.com/OpenZeppelin/zeppelin-solidity/contracts/ownership/Ownable.sol\";\r\n*/\r\n\r\ncontract ClassContract is Ownable {\r\n    using Roles for Roles.Role; // We want to use the Roles library\r\n    Roles.Role universityOwners; //Stores University owner Roles\r\n    Roles.Role teachers; // Stores teacher Roles\r\n    Roles.Role students; // Stores student Roles;\r\n\r\n\r\n    uint public universityIdGenerator;\r\n\r\n    mapping (uint => University) public universities; // Mapping to keep track of the Universities\r\n    mapping (address => bool) studentFees; // Mapping to keep track if student has paid fees or not\r\n    mapping (address => bool) grades;       // Mapping to keep track of studets' grades\r\n\r\n    struct University {\r\n        string name;\r\n        string description;\r\n        string website;\r\n        string phoneNumber;\r\n        bool open;\r\n        uint memberIdGenerator;\r\n        mapping (address => UniversityMember) owners;\r\n        mapping (address => UniversityMember) teachers;\r\n        mapping (address => UniversityMember) students;\r\n    }\r\n\r\n    struct UniversityInfo {\r\n        string name;\r\n        string description;\r\n        string website;\r\n        string phoneNumber;\r\n        bool open;\r\n    }\r\n\r\n    struct UniversityMember {\r\n        string fullName;\r\n        string email;\r\n        uint id;\r\n        bool active;\r\n    }\r\n\r\n    // Events\r\n    event LogUniversityAdded(string name, string desc, uint universityId);\r\n\r\n    // Modifiers\r\n    modifier validAddress(address _address) {\r\n        require(_address != address(0), \"ADDRESS CANNOT BE THE ZERO ADDRESS\");\r\n        _;\r\n    }\r\n\r\n    modifier ownerAtUniversity(uint universityId) {\r\n        require((universities[universityId].owners[msg.sender].active == true), \"DOES NOT BELONG TO THE UNIVERSITY OWNERS OR IS INACTIVE\");\r\n        require(universityOwners.has(msg.sender), \"DOES NOT HAVE UNIVERSITY OWNER ROLE\");\r\n        _;\r\n    }\r\n\r\n\r\n    // Add Universities\r\n    function addUniversity(string memory _name, string memory _description, string memory _website, string memory _phoneNumber)\r\n    public onlyOwner\r\n    returns (uint)\r\n    {\r\n        University memory newUniversity;\r\n        newUniversity.name = _name;\r\n        newUniversity.description = _description;\r\n        newUniversity.website = _website;\r\n        newUniversity.phoneNumber = _phoneNumber;\r\n        newUniversity.open = true;\r\n        universities[universityIdGenerator] = newUniversity;\r\n        universityIdGenerator += 1;\r\n\r\n        emit LogUniversityAdded(_name, _description, universityIdGenerator);\r\n        return (universityIdGenerator - 1);\r\n    }\r\n\r\n\r\n    /*\r\n    Roles and membership\r\n    */\r\n\r\n    function addUniversityOwnerRoles(address _ownerAddr, string memory _fullName, string memory _email, uint universityId)\r\n    public onlyOwner\r\n    validAddress(_ownerAddr)\r\n    {\r\n        universityOwners.add(_ownerAddr);\r\n\r\n        UniversityMember memory newUniversityMember;\r\n        newUniversityMember.fullName = _fullName;\r\n        newUniversityMember.email = _email;\r\n        newUniversityMember.id = universities[universityId].memberIdGenerator;\r\n        universities[universityId].owners[_ownerAddr] = newUniversityMember;\r\n\r\n        universities[universityId].memberIdGenerator += 1;\r\n    }\r\n\r\n    function addUniversityMember(address _addr, string memory _name, string memory _email, uint _universityId, string memory _memberRole) public\r\n    validAddress(_addr)\r\n    ownerAtUniversity(_universityId)\r\n    returns (bool)\r\n    {\r\n        UniversityMember memory newUniversityMember;\r\n        newUniversityMember.fullName = _name;\r\n        newUniversityMember.email = _email;\r\n        newUniversityMember.id = universities[_universityId].memberIdGenerator;\r\n        universities[_universityId].memberIdGenerator += 1;\r\n\r\n        if (keccak256(abi.encodePacked(_memberRole)) == keccak256(abi.encodePacked(\"teacher\")))\r\n        {\r\n            teachers.add(_addr);\r\n            universities[_universityId].teachers[_addr] = newUniversityMember;\r\n        }\r\n        else if (keccak256(abi.encodePacked(_memberRole)) == keccak256(abi.encodePacked(\"student\")))\r\n        {\r\n            students.add(_addr);\r\n            universities[_universityId].students[_addr] = newUniversityMember;\r\n        }\r\n\r\n        return true;\r\n    }\r\n\r\n\r\n    function getAllUniversities()\r\n    public view\r\n    returns (UniversityInfo[] memory)\r\n    {\r\n        UniversityInfo[] memory results = new UniversityInfo[](universityIdGenerator);\r\n       for (uint i = 0; i < universityIdGenerator; i++) {\r\n           results[i].name = universities[universityIdGenerator].name;\r\n           results[i].description = universities[universityIdGenerator].description;\r\n           results[i].website = universities[universityIdGenerator].website;\r\n           results[i].phoneNumber = universities[universityIdGenerator].phoneNumber;\r\n           results[i].open = universities[universityIdGenerator].open;\r\n       }\r\n       return results;\r\n    }\r\n\r\n\r\n    function addTeacherRoles(address[] memory _teachers) public onlyOwner {\r\n        for(uint i = 0; i < _teachers.length; i++)\r\n        {\r\n            teachers.add(_teachers[i]);\r\n        }\r\n    }\r\n\r\n    function addStudentRoles(address[] memory _students) public onlyOwner\r\n    {\r\n        for(uint j = 0; j < _students.length; j++)\r\n        {\r\n            students.add(_students[j]);\r\n        }\r\n    }\r\n\r\n    function areFeesEnough(uint amount) external pure returns (bool)\r\n    {\r\n        return amount >= 4 ether;\r\n\r\n    }\r\n\r\n    function payFees() public payable {\r\n        require(students.has(msg.sender), \"DOES NOT HAVE STUDENT ROLE\");\r\n        if(this.areFeesEnough(msg.value))\r\n        {\r\n            address(uint160(owner())).transfer(msg.value); // Cast to address(uint160) to make address payable\r\n            studentFees[msg.sender] = true;\r\n        }\r\n\r\n    }\r\n\r\n    function gradeStudent(address student, bool grade) public\r\n    {\r\n        require(teachers.has(msg.sender), \"DOES NOT HAVE TEACHER ROLE\");\r\n        require(students.has(student), \"ADDRESS PROVIDED IS NOT A STUDENT\");\r\n        grades[student] = grade;\r\n    }\r\n\r\n    function hasPaidFees(address account) validAddress(account) public view returns (bool) {\r\n        require(students.has(account),\"Provided account is not a student\");\r\n        return studentFees[account];\r\n    }\r\n\r\n\r\n    function terminateClass() onlyOwner public {\r\n        selfdestruct(msg.sender);\r\n    }\r\n\r\n\r\n    function getBalance(address account) public view returns (uint) {\r\n        return account.balance;\r\n    }\r\n\r\n}",
  "sourcePath": "G:/Personal/ConsenSys/FinalProject/Test3/contracts/ClassContract.sol",
  "compiler": {
    "name": "solc",
    "version": "0.5.8+commit.23d335f2.Emscripten.clang"
  },
  "schemaVersion": "3.0.17",
  "updatedAt": "2019-11-20T04:06:44.350Z",
  "networkType": "ethereum",
  "devdoc": {
    "methods": {
      "isOwner()": {
        "details": "Returns true if the caller is the current owner."
      },
      "owner()": {
        "details": "Returns the address of the current owner."
      },
      "renounceOwnership()": {
        "details": "Leaves the contract without owner. It will not be possible to call `onlyOwner` functions anymore. Can only be called by the current owner.     * NOTE: Renouncing ownership will leave the contract without an owner, thereby removing any functionality that is only available to the owner."
      },
      "transferOwnership(address)": {
        "details": "Transfers ownership of the contract to a new account (`newOwner`). Can only be called by the current owner."
      }
    }
  },
  "userdoc": {
    "methods": {}
  }
}