{
  "contractName": "ClassContract",
  "abi": [
    {
      "constant": true,
      "inputs": [],
      "name": "universityIdGenerator",
      "outputs": [
        {
          "name": "",
          "type": "uint256"
        }
      ],
      "payable": false,
      "stateMutability": "view",
      "type": "function"
    },
    {
      "constant": false,
      "inputs": [],
      "name": "renounceOwnership",
      "outputs": [],
      "payable": false,
      "stateMutability": "nonpayable",
      "type": "function"
    },
    {
      "constant": true,
      "inputs": [],
      "name": "owner",
      "outputs": [
        {
          "name": "",
          "type": "address"
        }
      ],
      "payable": false,
      "stateMutability": "view",
      "type": "function"
    },
    {
      "constant": true,
      "inputs": [],
      "name": "isOwner",
      "outputs": [
        {
          "name": "",
          "type": "bool"
        }
      ],
      "payable": false,
      "stateMutability": "view",
      "type": "function"
    },
    {
      "constant": true,
      "inputs": [
        {
          "name": "",
          "type": "uint256"
        }
      ],
      "name": "universities",
      "outputs": [
        {
          "name": "name",
          "type": "string"
        },
        {
          "name": "description",
          "type": "string"
        },
        {
          "name": "website",
          "type": "string"
        },
        {
          "name": "phoneNumber",
          "type": "string"
        },
        {
          "name": "open",
          "type": "bool"
        },
        {
          "name": "memberIdGenerator",
          "type": "uint256"
        }
      ],
      "payable": false,
      "stateMutability": "view",
      "type": "function"
    },
    {
      "constant": false,
      "inputs": [
        {
          "name": "newOwner",
          "type": "address"
        }
      ],
      "name": "transferOwnership",
      "outputs": [],
      "payable": false,
      "stateMutability": "nonpayable",
      "type": "function"
    },
    {
      "anonymous": false,
      "inputs": [
        {
          "indexed": false,
          "name": "name",
          "type": "string"
        },
        {
          "indexed": false,
          "name": "desc",
          "type": "string"
        },
        {
          "indexed": false,
          "name": "universityId",
          "type": "uint256"
        }
      ],
      "name": "LogUniversityAdded",
      "type": "event"
    },
    {
      "anonymous": false,
      "inputs": [
        {
          "indexed": true,
          "name": "previousOwner",
          "type": "address"
        },
        {
          "indexed": true,
          "name": "newOwner",
          "type": "address"
        }
      ],
      "name": "OwnershipTransferred",
      "type": "event"
    },
    {
      "constant": true,
      "inputs": [
        {
          "name": "_universityId",
          "type": "uint256"
        }
      ],
      "name": "readUniversity",
      "outputs": [
        {
          "name": "name",
          "type": "string"
        },
        {
          "name": "description",
          "type": "string"
        }
      ],
      "payable": false,
      "stateMutability": "view",
      "type": "function"
    },
    {
      "constant": false,
      "inputs": [
        {
          "name": "_name",
          "type": "string"
        },
        {
          "name": "_description",
          "type": "string"
        },
        {
          "name": "_website",
          "type": "string"
        },
        {
          "name": "_phoneNumber",
          "type": "string"
        }
      ],
      "name": "addUniversity",
      "outputs": [
        {
          "name": "",
          "type": "uint256"
        }
      ],
      "payable": false,
      "stateMutability": "nonpayable",
      "type": "function"
    },
    {
      "constant": false,
      "inputs": [
        {
          "name": "_ownerAddr",
          "type": "address"
        },
        {
          "name": "_fullName",
          "type": "string"
        },
        {
          "name": "_email",
          "type": "string"
        },
        {
          "name": "universityId",
          "type": "uint256"
        }
      ],
      "name": "addUniversityOwnerRoles",
      "outputs": [],
      "payable": false,
      "stateMutability": "nonpayable",
      "type": "function"
    },
    {
      "constant": false,
      "inputs": [
        {
          "name": "_addr",
          "type": "address"
        },
        {
          "name": "_name",
          "type": "string"
        },
        {
          "name": "_email",
          "type": "string"
        },
        {
          "name": "_universityId",
          "type": "uint256"
        },
        {
          "name": "_memberRole",
          "type": "string"
        }
      ],
      "name": "addUniversityMember",
      "outputs": [
        {
          "name": "",
          "type": "bool"
        }
      ],
      "payable": false,
      "stateMutability": "nonpayable",
      "type": "function"
    },
    {
      "constant": false,
      "inputs": [
        {
          "name": "_teachers",
          "type": "address[]"
        }
      ],
      "name": "addTeacherRoles",
      "outputs": [],
      "payable": false,
      "stateMutability": "nonpayable",
      "type": "function"
    },
    {
      "constant": false,
      "inputs": [
        {
          "name": "_students",
          "type": "address[]"
        }
      ],
      "name": "addStudentRoles",
      "outputs": [],
      "payable": false,
      "stateMutability": "nonpayable",
      "type": "function"
    },
    {
      "constant": true,
      "inputs": [
        {
          "name": "amount",
          "type": "uint256"
        }
      ],
      "name": "areFeesEnough",
      "outputs": [
        {
          "name": "",
          "type": "bool"
        }
      ],
      "payable": false,
      "stateMutability": "pure",
      "type": "function"
    },
    {
      "constant": false,
      "inputs": [],
      "name": "payFees",
      "outputs": [],
      "payable": true,
      "stateMutability": "payable",
      "type": "function"
    },
    {
      "constant": false,
      "inputs": [
        {
          "name": "student",
          "type": "address"
        },
        {
          "name": "grade",
          "type": "bool"
        }
      ],
      "name": "gradeStudent",
      "outputs": [],
      "payable": false,
      "stateMutability": "nonpayable",
      "type": "function"
    },
    {
      "constant": true,
      "inputs": [
        {
          "name": "account",
          "type": "address"
        }
      ],
      "name": "hasPaidFees",
      "outputs": [
        {
          "name": "",
          "type": "bool"
        }
      ],
      "payable": false,
      "stateMutability": "view",
      "type": "function"
    },
    {
      "constant": false,
      "inputs": [],
      "name": "terminateClass",
      "outputs": [],
      "payable": false,
      "stateMutability": "nonpayable",
      "type": "function"
    },
    {
      "constant": true,
      "inputs": [
        {
          "name": "account",
          "type": "address"
        }
      ],
      "name": "getBalance",
      "outputs": [
        {
          "name": "",
          "type": "uint256"
        }
      ],
      "payable": false,
      "stateMutability": "view",
      "type": "function"
    }
  ],
  "bytecode": "0x60806040526100126100d260201b60201c565b6000806101000a81548173ffffffffffffffffffffffffffffffffffffffff021916908373ffffffffffffffffffffffffffffffffffffffff1602179055506000809054906101000a900473ffffffffffffffffffffffffffffffffffffffff1673ffffffffffffffffffffffffffffffffffffffff16600073ffffffffffffffffffffffffffffffffffffffff167f8be0079c531659141344cd1fd0a4f28419497f9722a3daafe3b4186f6b6457e060405160405180910390a36100da565b600033905090565b612b3c806100e96000396000f3fe6080604052600436106101095760003560e01c80637d55b3e311610095578063b28064d811610064578063b28064d814610b05578063bfc2faa714610da6578063e13f8d6614610dbd578063f2fde38b14610e26578063f8b2cb4f14610e7757610109565b80637d55b3e3146108225780638da5cb5b146108755780638f32d59b146108cc5780639c38f65f146108fb57610109565b8063360a02ba116100dc578063360a02ba1461043f57806336d6a6fe14610504578063569fccaf146105c957806362779e1514610801578063715018a61461080b57610109565b8063057b295b1461010e578063177ead101461022e5780631f0ac6da1461028b57806326ff987214610414575b600080fd5b34801561011a57600080fd5b506101476004803603602081101561013157600080fd5b8101908080359060200190929190505050610edc565b604051808060200180602001838103835285818151815260200191508051906020019080838360005b8381101561018b578082015181840152602081019050610170565b50505050905090810190601f1680156101b85780820380516001836020036101000a031916815260200191505b50838103825284818151815260200191508051906020019080838360005b838110156101f15780820151818401526020810190506101d6565b50505050905090810190601f16801561021e5780820380516001836020036101000a031916815260200191505b5094505050505060405180910390f35b34801561023a57600080fd5b506102896004803603604081101561025157600080fd5b81019080803573ffffffffffffffffffffffffffffffffffffffff16906020019092919080351515906020019092919050505061104c565b005b34801561029757600080fd5b50610412600480360360808110156102ae57600080fd5b81019080803573ffffffffffffffffffffffffffffffffffffffff169060200190929190803590602001906401000000008111156102eb57600080fd5b8201836020820111156102fd57600080fd5b8035906020019184600183028401116401000000008311171561031f57600080fd5b91908080601f016020809104026020016040519081016040528093929190818152602001838380828437600081840152601f19601f8201169050808301925050505050505091929192908035906020019064010000000081111561038257600080fd5b82018360208201111561039457600080fd5b803590602001918460018302840111640100000000831117156103b657600080fd5b91908080601f016020809104026020016040519081016040528093929190818152602001838380828437600081840152601f19601f82011690508083019250505050505050919291929080359060200190929190505050611196565b005b34801561042057600080fd5b506104296113cd565b6040518082815260200191505060405180910390f35b34801561044b57600080fd5b506105026004803603602081101561046257600080fd5b810190808035906020019064010000000081111561047f57600080fd5b82018360208201111561049157600080fd5b803590602001918460208302840111640100000000831117156104b357600080fd5b919080806020026020016040519081016040528093929190818152602001838360200280828437600081840152601f19601f8201169050808301925050505050505091929192905050506113d3565b005b34801561051057600080fd5b506105c76004803603602081101561052757600080fd5b810190808035906020019064010000000081111561054457600080fd5b82018360208201111561055657600080fd5b8035906020019184602083028401116401000000008311171561057857600080fd5b919080806020026020016040519081016040528093929190818152602001838360200280828437600081840152601f19601f820116905080830192505050505050509192919290505050611494565b005b3480156105d557600080fd5b506107e7600480360360a08110156105ec57600080fd5b81019080803573ffffffffffffffffffffffffffffffffffffffff1690602001909291908035906020019064010000000081111561062957600080fd5b82018360208201111561063b57600080fd5b8035906020019184600183028401116401000000008311171561065d57600080fd5b91908080601f016020809104026020016040519081016040528093929190818152602001838380828437600081840152601f19601f820116905080830192505050505050509192919290803590602001906401000000008111156106c057600080fd5b8201836020820111156106d257600080fd5b803590602001918460018302840111640100000000831117156106f457600080fd5b91908080601f016020809104026020016040519081016040528093929190818152602001838380828437600081840152601f19601f820116905080830192505050505050509192919290803590602001909291908035906020019064010000000081111561076157600080fd5b82018360208201111561077357600080fd5b8035906020019184600183028401116401000000008311171561079557600080fd5b91908080601f016020809104026020016040519081016040528093929190818152602001838380828437600081840152601f19601f820116905080830192505050505050509192919290505050611555565b604051808215151515815260200191505060405180910390f35b610809611a9a565b005b34801561081757600080fd5b50610820611c5a565b005b34801561082e57600080fd5b5061085b6004803603602081101561084557600080fd5b8101908080359060200190929190505050611d93565b604051808215151515815260200191505060405180910390f35b34801561088157600080fd5b5061088a611da8565b604051808273ffffffffffffffffffffffffffffffffffffffff1673ffffffffffffffffffffffffffffffffffffffff16815260200191505060405180910390f35b3480156108d857600080fd5b506108e1611dd1565b604051808215151515815260200191505060405180910390f35b34801561090757600080fd5b506109346004803603602081101561091e57600080fd5b8101908080359060200190929190505050611e2f565b60405180806020018060200180602001806020018715151515815260200186815260200185810385528b818151815260200191508051906020019080838360005b83811015610990578082015181840152602081019050610975565b50505050905090810190601f1680156109bd5780820380516001836020036101000a031916815260200191505b5085810384528a818151815260200191508051906020019080838360005b838110156109f65780820151818401526020810190506109db565b50505050905090810190601f168015610a235780820380516001836020036101000a031916815260200191505b50858103835289818151815260200191508051906020019080838360005b83811015610a5c578082015181840152602081019050610a41565b50505050905090810190601f168015610a895780820380516001836020036101000a031916815260200191505b50858103825288818151815260200191508051906020019080838360005b83811015610ac2578082015181840152602081019050610aa7565b50505050905090810190601f168015610aef5780820380516001836020036101000a031916815260200191505b509a505050505050505050505060405180910390f35b348015610b1157600080fd5b50610d9060048036036080811015610b2857600080fd5b8101908080359060200190640100000000811115610b4557600080fd5b820183602082011115610b5757600080fd5b80359060200191846001830284011164010000000083111715610b7957600080fd5b91908080601f016020809104026020016040519081016040528093929190818152602001838380828437600081840152601f19601f82011690508083019250505050505050919291929080359060200190640100000000811115610bdc57600080fd5b820183602082011115610bee57600080fd5b80359060200191846001830284011164010000000083111715610c1057600080fd5b91908080601f016020809104026020016040519081016040528093929190818152602001838380828437600081840152601f19601f82011690508083019250505050505050919291929080359060200190640100000000811115610c7357600080fd5b820183602082011115610c8557600080fd5b80359060200191846001830284011164010000000083111715610ca757600080fd5b91908080601f016020809104026020016040519081016040528093929190818152602001838380828437600081840152601f19601f82011690508083019250505050505050919291929080359060200190640100000000811115610d0a57600080fd5b820183602082011115610d1c57600080fd5b80359060200191846001830284011164010000000083111715610d3e57600080fd5b91908080601f016020809104026020016040519081016040528093929190818152602001838380828437600081840152601f19601f8201169050808301925050505050505091929192905050506120d8565b6040518082815260200191505060405180910390f35b348015610db257600080fd5b50610dbb61237d565b005b348015610dc957600080fd5b50610e0c60048036036020811015610de057600080fd5b81019080803573ffffffffffffffffffffffffffffffffffffffff169060200190929190505050612410565b604051808215151515815260200191505060405180910390f35b348015610e3257600080fd5b50610e7560048036036020811015610e4957600080fd5b81019080803573ffffffffffffffffffffffffffffffffffffffff169060200190929190505050612557565b005b348015610e8357600080fd5b50610ec660048036036020811015610e9a57600080fd5b81019080803573ffffffffffffffffffffffffffffffffffffffff1690602001909291905050506125dd565b6040518082815260200191505060405180910390f35b606080600560008481526020019081526020016000206000018054600181600116156101000203166002900480601f016020809104026020016040519081016040528092919081815260200182805460018160011615610100020316600290048015610f895780601f10610f5e57610100808354040283529160200191610f89565b820191906000526020600020905b815481529060010190602001808311610f6c57829003601f168201915b50505050509150600560008481526020019081526020016000206001018054600181600116156101000203166002900480601f01602080910402602001604051908101604052809291908181526020018280546001816001161561010002031660029004801561103a5780601f1061100f5761010080835404028352916020019161103a565b820191906000526020600020905b81548152906001019060200180831161101d57829003601f168201915b50505050509050818191509150915091565b6110603360026125fe90919063ffffffff16565b6110d2576040517f08c379a000000000000000000000000000000000000000000000000000000000815260040180806020018281038252601a8152602001807f444f4553204e4f542048415645205445414348455220524f4c4500000000000081525060200191505060405180910390fd5b6110e68260036125fe90919063ffffffff16565b61113b576040517f08c379a0000000000000000000000000000000000000000000000000000000008152600401808060200182810382526021815260200180612a766021913960400191505060405180910390fd5b80600760008473ffffffffffffffffffffffffffffffffffffffff1673ffffffffffffffffffffffffffffffffffffffff16815260200190815260200160002060006101000a81548160ff0219169083151502179055505050565b61119e611dd1565b611210576040517f08c379a00000000000000000000000000000000000000000000000000000000081526004018080602001828103825260208152602001807f4f776e61626c653a2063616c6c6572206973206e6f7420746865206f776e657281525060200191505060405180910390fd5b83600073ffffffffffffffffffffffffffffffffffffffff168173ffffffffffffffffffffffffffffffffffffffff161415611297576040517f08c379a0000000000000000000000000000000000000000000000000000000008152600401808060200182810382526022815260200180612a0b6022913960400191505060405180910390fd5b6112ab8560016126dc90919063ffffffff16565b6112b3612903565b8481600001819052508381602001819052506005600084815260200190815260200160002060050154816040018181525050806005600085815260200190815260200160002060060160008873ffffffffffffffffffffffffffffffffffffffff1673ffffffffffffffffffffffffffffffffffffffff168152602001908152602001600020600082015181600001908051906020019061135592919061292d565b50602082015181600101908051906020019061137292919061292d565b506040820151816002015560608201518160030160006101000a81548160ff02191690831515021790555090505060016005600085815260200190815260200160002060050160008282540192505081905550505050505050565b60045481565b6113db611dd1565b61144d576040517f08c379a00000000000000000000000000000000000000000000000000000000081526004018080602001828103825260208152602001807f4f776e61626c653a2063616c6c6572206973206e6f7420746865206f776e657281525060200191505060405180910390fd5b60008090505b81518110156114905761148382828151811061146b57fe5b602002602001015160026126dc90919063ffffffff16565b8080600101915050611453565b5050565b61149c611dd1565b61150e576040517f08c379a00000000000000000000000000000000000000000000000000000000081526004018080602001828103825260208152602001807f4f776e61626c653a2063616c6c6572206973206e6f7420746865206f776e657281525060200191505060405180910390fd5b60008090505b81518110156115515761154482828151811061152c57fe5b602002602001015160036126dc90919063ffffffff16565b8080600101915050611514565b5050565b600085600073ffffffffffffffffffffffffffffffffffffffff168173ffffffffffffffffffffffffffffffffffffffff1614156115de576040517f08c379a0000000000000000000000000000000000000000000000000000000008152600401808060200182810382526022815260200180612a0b6022913960400191505060405180910390fd5b83600115156005600083815260200190815260200160002060060160003373ffffffffffffffffffffffffffffffffffffffff1673ffffffffffffffffffffffffffffffffffffffff16815260200190815260200160002060030160009054906101000a900460ff1615151461169f576040517f08c379a0000000000000000000000000000000000000000000000000000000008152600401808060200182810382526037815260200180612ada6037913960400191505060405180910390fd5b6116b33360016125fe90919063ffffffff16565b611708576040517f08c379a0000000000000000000000000000000000000000000000000000000008152600401808060200182810382526023815260200180612a536023913960400191505060405180910390fd5b611710612903565b87816000018190525086816020018190525060056000878152602001908152602001600020600501548160400181815250506001600560008881526020019081526020016000206005016000828254019250508190555060405160200180807f7465616368657200000000000000000000000000000000000000000000000000815250600701905060405160208183030381529060405280519060200120856040516020018082805190602001908083835b602083106117e557805182526020820191506020810190506020830392506117c2565b6001836020036101000a0380198251168184511680821785525050505050509050019150506040516020818303038152906040528051906020012014156118fa5761183a8960026126dc90919063ffffffff16565b806005600088815260200190815260200160002060070160008b73ffffffffffffffffffffffffffffffffffffffff1673ffffffffffffffffffffffffffffffffffffffff16815260200190815260200160002060008201518160000190805190602001906118aa92919061292d565b5060208201518160010190805190602001906118c792919061292d565b506040820151816002015560608201518160030160006101000a81548160ff021916908315150217905550905050611a8a565b60405160200180807f73747564656e7400000000000000000000000000000000000000000000000000815250600701905060405160208183030381529060405280519060200120856040516020018082805190602001908083835b602083106119785780518252602082019150602081019050602083039250611955565b6001836020036101000a038019825116818451168082178552505050505050905001915050604051602081830303815290604052805190602001201415611a89576119cd8960036126dc90919063ffffffff16565b806005600088815260200190815260200160002060080160008b73ffffffffffffffffffffffffffffffffffffffff1673ffffffffffffffffffffffffffffffffffffffff1681526020019081526020016000206000820151816000019080519060200190611a3d92919061292d565b506020820151816001019080519060200190611a5a92919061292d565b506040820151816002015560608201518160030160006101000a81548160ff0219169083151502179055509050505b5b6001935050505095945050505050565b611aae3360036125fe90919063ffffffff16565b611b20576040517f08c379a000000000000000000000000000000000000000000000000000000000815260040180806020018281038252601a8152602001807f444f4553204e4f5420484156452053545544454e5420524f4c4500000000000081525060200191505060405180910390fd5b3073ffffffffffffffffffffffffffffffffffffffff16637d55b3e3346040518263ffffffff1660e01b81526004018082815260200191505060206040518083038186803b158015611b7157600080fd5b505afa158015611b85573d6000803e3d6000fd5b505050506040513d6020811015611b9b57600080fd5b810190808051906020019092919050505015611c5857611bb9611da8565b73ffffffffffffffffffffffffffffffffffffffff166108fc349081150290604051600060405180830381858888f19350505050158015611bfe573d6000803e3d6000fd5b506001600660003373ffffffffffffffffffffffffffffffffffffffff1673ffffffffffffffffffffffffffffffffffffffff16815260200190815260200160002060006101000a81548160ff0219169083151502179055505b565b611c62611dd1565b611cd4576040517f08c379a00000000000000000000000000000000000000000000000000000000081526004018080602001828103825260208152602001807f4f776e61626c653a2063616c6c6572206973206e6f7420746865206f776e657281525060200191505060405180910390fd5b600073ffffffffffffffffffffffffffffffffffffffff166000809054906101000a900473ffffffffffffffffffffffffffffffffffffffff1673ffffffffffffffffffffffffffffffffffffffff167f8be0079c531659141344cd1fd0a4f28419497f9722a3daafe3b4186f6b6457e060405160405180910390a360008060006101000a81548173ffffffffffffffffffffffffffffffffffffffff021916908373ffffffffffffffffffffffffffffffffffffffff160217905550565b6000673782dace9d9000008210159050919050565b60008060009054906101000a900473ffffffffffffffffffffffffffffffffffffffff16905090565b60008060009054906101000a900473ffffffffffffffffffffffffffffffffffffffff1673ffffffffffffffffffffffffffffffffffffffff16611e136127b7565b73ffffffffffffffffffffffffffffffffffffffff1614905090565b6005602052806000526040600020600091509050806000018054600181600116156101000203166002900480601f016020809104026020016040519081016040528092919081815260200182805460018160011615610100020316600290048015611edb5780601f10611eb057610100808354040283529160200191611edb565b820191906000526020600020905b815481529060010190602001808311611ebe57829003601f168201915b505050505090806001018054600181600116156101000203166002900480601f016020809104026020016040519081016040528092919081815260200182805460018160011615610100020316600290048015611f795780601f10611f4e57610100808354040283529160200191611f79565b820191906000526020600020905b815481529060010190602001808311611f5c57829003601f168201915b505050505090806002018054600181600116156101000203166002900480601f0160208091040260200160405190810160405280929190818152602001828054600181600116156101000203166002900480156120175780601f10611fec57610100808354040283529160200191612017565b820191906000526020600020905b815481529060010190602001808311611ffa57829003601f168201915b505050505090806003018054600181600116156101000203166002900480601f0160208091040260200160405190810160405280929190818152602001828054600181600116156101000203166002900480156120b55780601f1061208a576101008083540402835291602001916120b5565b820191906000526020600020905b81548152906001019060200180831161209857829003601f168201915b5050505050908060040160009054906101000a900460ff16908060050154905086565b60006120e2611dd1565b612154576040517f08c379a00000000000000000000000000000000000000000000000000000000081526004018080602001828103825260208152602001807f4f776e61626c653a2063616c6c6572206973206e6f7420746865206f776e657281525060200191505060405180910390fd5b61215c6129ad565b85816000018190525084816020018190525083816040018190525082816060018190525060018160800190151590811515815250508060056000600454815260200190815260200160002060008201518160000190805190602001906121c392919061292d565b5060208201518160010190805190602001906121e092919061292d565b5060408201518160020190805190602001906121fd92919061292d565b50606082015181600301908051906020019061221a92919061292d565b5060808201518160040160006101000a81548160ff02191690831515021790555060a0820151816005015590505060016004600082825401925050819055507f17bd20564888962589be0906f760255071a0c85d66584f4e1f6489591c14f83c8686600454604051808060200180602001848152602001838103835286818151815260200191508051906020019080838360005b838110156122c95780820151818401526020810190506122ae565b50505050905090810190601f1680156122f65780820380516001836020036101000a031916815260200191505b50838103825285818151815260200191508051906020019080838360005b8381101561232f578082015181840152602081019050612314565b50505050905090810190601f16801561235c5780820380516001836020036101000a031916815260200191505b509550505050505060405180910390a1600160045403915050949350505050565b612385611dd1565b6123f7576040517f08c379a00000000000000000000000000000000000000000000000000000000081526004018080602001828103825260208152602001807f4f776e61626c653a2063616c6c6572206973206e6f7420746865206f776e657281525060200191505060405180910390fd5b3373ffffffffffffffffffffffffffffffffffffffff16ff5b600081600073ffffffffffffffffffffffffffffffffffffffff168173ffffffffffffffffffffffffffffffffffffffff161415612499576040517f08c379a0000000000000000000000000000000000000000000000000000000008152600401808060200182810382526022815260200180612a0b6022913960400191505060405180910390fd5b6124ad8360036125fe90919063ffffffff16565b612502576040517f08c379a0000000000000000000000000000000000000000000000000000000008152600401808060200182810382526021815260200180612ab96021913960400191505060405180910390fd5b600660008473ffffffffffffffffffffffffffffffffffffffff1673ffffffffffffffffffffffffffffffffffffffff16815260200190815260200160002060009054906101000a900460ff16915050919050565b61255f611dd1565b6125d1576040517f08c379a00000000000000000000000000000000000000000000000000000000081526004018080602001828103825260208152602001807f4f776e61626c653a2063616c6c6572206973206e6f7420746865206f776e657281525060200191505060405180910390fd5b6125da816127bf565b50565b60008173ffffffffffffffffffffffffffffffffffffffff16319050919050565b60008073ffffffffffffffffffffffffffffffffffffffff168273ffffffffffffffffffffffffffffffffffffffff161415612685576040517f08c379a0000000000000000000000000000000000000000000000000000000008152600401808060200182810382526022815260200180612a976022913960400191505060405180910390fd5b8260000160008373ffffffffffffffffffffffffffffffffffffffff1673ffffffffffffffffffffffffffffffffffffffff16815260200190815260200160002060009054906101000a900460ff16905092915050565b6126e682826125fe565b15612759576040517f08c379a000000000000000000000000000000000000000000000000000000000815260040180806020018281038252601f8152602001807f526f6c65733a206163636f756e7420616c72656164792068617320726f6c650081525060200191505060405180910390fd5b60018260000160008373ffffffffffffffffffffffffffffffffffffffff1673ffffffffffffffffffffffffffffffffffffffff16815260200190815260200160002060006101000a81548160ff0219169083151502179055505050565b600033905090565b600073ffffffffffffffffffffffffffffffffffffffff168173ffffffffffffffffffffffffffffffffffffffff161415612845576040517f08c379a0000000000000000000000000000000000000000000000000000000008152600401808060200182810382526026815260200180612a2d6026913960400191505060405180910390fd5b8073ffffffffffffffffffffffffffffffffffffffff166000809054906101000a900473ffffffffffffffffffffffffffffffffffffffff1673ffffffffffffffffffffffffffffffffffffffff167f8be0079c531659141344cd1fd0a4f28419497f9722a3daafe3b4186f6b6457e060405160405180910390a3806000806101000a81548173ffffffffffffffffffffffffffffffffffffffff021916908373ffffffffffffffffffffffffffffffffffffffff16021790555050565b60405180608001604052806060815260200160608152602001600081526020016000151581525090565b828054600181600116156101000203166002900490600052602060002090601f016020900481019282601f1061296e57805160ff191683800117855561299c565b8280016001018555821561299c579182015b8281111561299b578251825591602001919060010190612980565b5b5090506129a991906129e5565b5090565b6040518060c0016040528060608152602001606081526020016060815260200160608152602001600015158152602001600081525090565b612a0791905b80821115612a035760008160009055506001016129eb565b5090565b9056fe414444524553532043414e4e4f5420424520544845205a45524f20414444524553534f776e61626c653a206e6577206f776e657220697320746865207a65726f2061646472657373444f4553204e4f54204841564520554e4956455253495459204f574e455220524f4c45414444524553532050524f5649444544204953204e4f5420412053545544454e54526f6c65733a206163636f756e7420697320746865207a65726f206164647265737350726f7669646564206163636f756e74206973206e6f7420612073747564656e74444f4553204e4f542042454c4f4e4720544f2054484520554e4956455253495459204f574e455253204f5220495320494e414354495645a165627a7a7230582089ac5c6227db467764ddaa335d986e08aefb9984a82799b7d068c0934975fcba0029",
  "source": "pragma solidity ^0.5.0;\r\n\r\nimport \"openzeppelin-solidity/contracts/access/Roles.sol\";\r\nimport \"openzeppelin-solidity/contracts/ownership/Ownable.sol\";\r\n\r\ncontract ClassContract is Ownable {\r\n    using Roles for Roles.Role; // We want to use the Roles library\r\n    Roles.Role universityOwners; //Stores University owner Roles\r\n    Roles.Role teachers; // Stores teacher Roles\r\n    Roles.Role students; // Stores student Roles;\r\n\r\n\r\n    uint public universityIdGenerator;\r\n\r\n    mapping (uint => University) public universities; // Mapping to keep track of the Universities\r\n    mapping (address => bool) studentFees; // Mapping to keep track if student has paid fees or not\r\n    mapping (address => bool) grades;       // Mapping to keep track of studets' grades\r\n\r\n    struct University {\r\n        string name;\r\n        string description;\r\n        string website;\r\n        string phoneNumber;\r\n        bool open;\r\n        uint memberIdGenerator;\r\n        mapping (address => UniversityMember) owners;\r\n        mapping (address => UniversityMember) teachers;\r\n        mapping (address => UniversityMember) students;\r\n    }\r\n\r\n    struct UniversityMember {\r\n        string fullName;\r\n        string email;\r\n        uint id;\r\n        bool active;\r\n    }\r\n\r\n    // Events\r\n    event LogUniversityAdded(string name, string desc, uint universityId);\r\n\r\n    // Modifiers\r\n    modifier validAddress(address _address) {\r\n        require(_address != address(0), \"ADDRESS CANNOT BE THE ZERO ADDRESS\");\r\n        _;\r\n    }\r\n\r\n    modifier ownerAtUniversity(uint universityId) {\r\n        require((universities[universityId].owners[msg.sender].active == true), \"DOES NOT BELONG TO THE UNIVERSITY OWNERS OR IS INACTIVE\");\r\n        require(universityOwners.has(msg.sender), \"DOES NOT HAVE UNIVERSITY OWNER ROLE\");\r\n        _;\r\n    }\r\n\r\n    function readUniversity(uint _universityId) public view\r\n    returns(string memory name, string memory description)\r\n    {\r\n        name = universities[_universityId].name;\r\n        description = universities[_universityId].description;\r\n        return (name, description);\r\n    }\r\n\r\n\r\n\r\n    // Add Universities\r\n    function addUniversity(string memory _name, string memory _description, string memory _website, string memory _phoneNumber)\r\n    public onlyOwner\r\n    returns (uint)\r\n    {\r\n        University memory newUniversity;\r\n        newUniversity.name = _name;\r\n        newUniversity.description = _description;\r\n        newUniversity.website = _website;\r\n        newUniversity.phoneNumber = _phoneNumber;\r\n        newUniversity.open = true;\r\n        universities[universityIdGenerator] = newUniversity;\r\n        universityIdGenerator += 1;\r\n\r\n        emit LogUniversityAdded(_name, _description, universityIdGenerator);\r\n        return (universityIdGenerator - 1);\r\n    }\r\n\r\n\r\n    /*\r\n    Roles and membership\r\n    */\r\n\r\n    function addUniversityOwnerRoles(address _ownerAddr, string memory _fullName, string memory _email, uint universityId)\r\n    public onlyOwner\r\n    validAddress(_ownerAddr)\r\n    {\r\n        universityOwners.add(_ownerAddr);\r\n\r\n        UniversityMember memory newUniversityMember;\r\n        newUniversityMember.fullName = _fullName;\r\n        newUniversityMember.email = _email;\r\n        newUniversityMember.id = universities[universityId].memberIdGenerator;\r\n        universities[universityId].owners[_ownerAddr] = newUniversityMember;\r\n\r\n        universities[universityId].memberIdGenerator += 1;\r\n    }\r\n\r\n    function addUniversityMember(address _addr, string memory _name, string memory _email, uint _universityId, string memory _memberRole) public\r\n    validAddress(_addr)\r\n    ownerAtUniversity(_universityId)\r\n    returns (bool)\r\n    {\r\n        UniversityMember memory newUniversityMember;\r\n        newUniversityMember.fullName = _name;\r\n        newUniversityMember.email = _email;\r\n        newUniversityMember.id = universities[_universityId].memberIdGenerator;\r\n        universities[_universityId].memberIdGenerator += 1;\r\n\r\n        if (keccak256(abi.encodePacked(_memberRole)) == keccak256(abi.encodePacked(\"teacher\")))\r\n        {\r\n            teachers.add(_addr);\r\n            universities[_universityId].teachers[_addr] = newUniversityMember;\r\n        }\r\n        else if (keccak256(abi.encodePacked(_memberRole)) == keccak256(abi.encodePacked(\"student\")))\r\n        {\r\n            students.add(_addr);\r\n            universities[_universityId].students[_addr] = newUniversityMember;\r\n        }\r\n\r\n        return true;\r\n    }\r\n\r\n\r\n    function addTeacherRoles(address[] memory _teachers) public onlyOwner {\r\n        for(uint i = 0; i < _teachers.length; i++)\r\n        {\r\n            teachers.add(_teachers[i]);\r\n        }\r\n    }\r\n\r\n    function addStudentRoles(address[] memory _students) public onlyOwner\r\n    {\r\n        for(uint j = 0; j < _students.length; j++)\r\n        {\r\n            students.add(_students[j]);\r\n        }\r\n    }\r\n\r\n    function areFeesEnough(uint amount) external pure returns (bool)\r\n    {\r\n        return amount >= 4 ether;\r\n\r\n    }\r\n\r\n    function payFees() public payable {\r\n        require(students.has(msg.sender), \"DOES NOT HAVE STUDENT ROLE\");\r\n        if(this.areFeesEnough(msg.value))\r\n        {\r\n            address(uint160(owner())).transfer(msg.value); // Cast to address(uint160) to make address payable\r\n            studentFees[msg.sender] = true;\r\n        }\r\n\r\n    }\r\n\r\n    function gradeStudent(address student, bool grade) public\r\n    {\r\n        require(teachers.has(msg.sender), \"DOES NOT HAVE TEACHER ROLE\");\r\n        require(students.has(student), \"ADDRESS PROVIDED IS NOT A STUDENT\");\r\n        grades[student] = grade;\r\n    }\r\n\r\n    function hasPaidFees(address account) validAddress(account) public view returns (bool) {\r\n        require(students.has(account),\"Provided account is not a student\");\r\n        return studentFees[account];\r\n    }\r\n\r\n\r\n    function terminateClass() onlyOwner public {\r\n        selfdestruct(msg.sender);\r\n    }\r\n\r\n\r\n    function getBalance(address account) public view returns (uint) {\r\n        return account.balance;\r\n    }\r\n\r\n}",
  "sourcePath": "G:/Personal/ConsenSys/FinalProject/Test3/contracts/ClassContract.sol",
  "compiler": {
    "name": "solc",
    "version": "0.5.8+commit.23d335f2.Emscripten.clang"
  },
  "schemaVersion": "3.0.17",
  "updatedAt": "2019-11-19T20:45:11.350Z",
  "devdoc": {
    "methods": {
      "isOwner()": {
        "details": "Returns true if the caller is the current owner."
      },
      "owner()": {
        "details": "Returns the address of the current owner."
      },
      "renounceOwnership()": {
        "details": "Leaves the contract without owner. It will not be possible to call `onlyOwner` functions anymore. Can only be called by the current owner.     * NOTE: Renouncing ownership will leave the contract without an owner, thereby removing any functionality that is only available to the owner."
      },
      "transferOwnership(address)": {
        "details": "Transfers ownership of the contract to a new account (`newOwner`). Can only be called by the current owner."
      }
    }
  },
  "userdoc": {
    "methods": {}
  }
}