{
  "contractName": "ClassContract",
  "abi": [
    {
      "constant": true,
      "inputs": [],
      "name": "universityIdGenerator",
      "outputs": [
        {
          "name": "",
          "type": "uint256"
        }
      ],
      "payable": false,
      "stateMutability": "view",
      "type": "function"
    },
    {
      "constant": false,
      "inputs": [],
      "name": "renounceOwnership",
      "outputs": [],
      "payable": false,
      "stateMutability": "nonpayable",
      "type": "function"
    },
    {
      "constant": true,
      "inputs": [],
      "name": "owner",
      "outputs": [
        {
          "name": "",
          "type": "address"
        }
      ],
      "payable": false,
      "stateMutability": "view",
      "type": "function"
    },
    {
      "constant": true,
      "inputs": [],
      "name": "isOwner",
      "outputs": [
        {
          "name": "",
          "type": "bool"
        }
      ],
      "payable": false,
      "stateMutability": "view",
      "type": "function"
    },
    {
      "constant": true,
      "inputs": [
        {
          "name": "",
          "type": "uint256"
        }
      ],
      "name": "universities",
      "outputs": [
        {
          "name": "name",
          "type": "string"
        },
        {
          "name": "description",
          "type": "string"
        },
        {
          "name": "website",
          "type": "string"
        },
        {
          "name": "phoneNumber",
          "type": "string"
        },
        {
          "name": "open",
          "type": "bool"
        }
      ],
      "payable": false,
      "stateMutability": "view",
      "type": "function"
    },
    {
      "constant": false,
      "inputs": [
        {
          "name": "newOwner",
          "type": "address"
        }
      ],
      "name": "transferOwnership",
      "outputs": [],
      "payable": false,
      "stateMutability": "nonpayable",
      "type": "function"
    },
    {
      "anonymous": false,
      "inputs": [
        {
          "indexed": false,
          "name": "name",
          "type": "string"
        },
        {
          "indexed": false,
          "name": "desc",
          "type": "string"
        },
        {
          "indexed": false,
          "name": "universityId",
          "type": "uint256"
        }
      ],
      "name": "LogUniversityAdded",
      "type": "event"
    },
    {
      "anonymous": false,
      "inputs": [
        {
          "indexed": true,
          "name": "previousOwner",
          "type": "address"
        },
        {
          "indexed": true,
          "name": "newOwner",
          "type": "address"
        }
      ],
      "name": "OwnershipTransferred",
      "type": "event"
    },
    {
      "constant": false,
      "inputs": [
        {
          "name": "_name",
          "type": "string"
        },
        {
          "name": "_description",
          "type": "string"
        },
        {
          "name": "_website",
          "type": "string"
        },
        {
          "name": "_phoneNumber",
          "type": "string"
        }
      ],
      "name": "addUniversity",
      "outputs": [
        {
          "name": "",
          "type": "uint256"
        }
      ],
      "payable": false,
      "stateMutability": "nonpayable",
      "type": "function"
    },
    {
      "constant": false,
      "inputs": [
        {
          "name": "_ownerAddr",
          "type": "address"
        },
        {
          "name": "universityId",
          "type": "uint256"
        }
      ],
      "name": "addUniversityOwnerRoles",
      "outputs": [],
      "payable": false,
      "stateMutability": "nonpayable",
      "type": "function"
    },
    {
      "constant": false,
      "inputs": [
        {
          "name": "_teachers",
          "type": "address[]"
        }
      ],
      "name": "addTeacherRoles",
      "outputs": [],
      "payable": false,
      "stateMutability": "nonpayable",
      "type": "function"
    },
    {
      "constant": false,
      "inputs": [
        {
          "name": "_teacherAddr",
          "type": "address"
        },
        {
          "name": "universityId",
          "type": "uint256"
        }
      ],
      "name": "addTeacherRoles",
      "outputs": [],
      "payable": false,
      "stateMutability": "nonpayable",
      "type": "function"
    },
    {
      "constant": false,
      "inputs": [
        {
          "name": "_students",
          "type": "address[]"
        }
      ],
      "name": "addStudentRoles",
      "outputs": [],
      "payable": false,
      "stateMutability": "nonpayable",
      "type": "function"
    },
    {
      "constant": false,
      "inputs": [
        {
          "name": "_studentAddr",
          "type": "address"
        },
        {
          "name": "universityId",
          "type": "uint256"
        }
      ],
      "name": "addStudentRoles",
      "outputs": [],
      "payable": false,
      "stateMutability": "nonpayable",
      "type": "function"
    },
    {
      "constant": true,
      "inputs": [
        {
          "name": "amount",
          "type": "uint256"
        }
      ],
      "name": "areFeesEnough",
      "outputs": [
        {
          "name": "",
          "type": "bool"
        }
      ],
      "payable": false,
      "stateMutability": "pure",
      "type": "function"
    },
    {
      "constant": false,
      "inputs": [],
      "name": "payFees",
      "outputs": [],
      "payable": true,
      "stateMutability": "payable",
      "type": "function"
    },
    {
      "constant": false,
      "inputs": [
        {
          "name": "student",
          "type": "address"
        },
        {
          "name": "grade",
          "type": "bool"
        }
      ],
      "name": "gradeStudent",
      "outputs": [],
      "payable": false,
      "stateMutability": "nonpayable",
      "type": "function"
    },
    {
      "constant": true,
      "inputs": [
        {
          "name": "account",
          "type": "address"
        }
      ],
      "name": "hasPaidFees",
      "outputs": [
        {
          "name": "",
          "type": "bool"
        }
      ],
      "payable": false,
      "stateMutability": "view",
      "type": "function"
    },
    {
      "constant": false,
      "inputs": [],
      "name": "terminateClass",
      "outputs": [],
      "payable": false,
      "stateMutability": "nonpayable",
      "type": "function"
    },
    {
      "constant": true,
      "inputs": [
        {
          "name": "account",
          "type": "address"
        }
      ],
      "name": "getBalance",
      "outputs": [
        {
          "name": "",
          "type": "uint256"
        }
      ],
      "payable": false,
      "stateMutability": "view",
      "type": "function"
    }
  ],
  "bytecode": "0x60806040526100126100d260201b60201c565b6000806101000a81548173ffffffffffffffffffffffffffffffffffffffff021916908373ffffffffffffffffffffffffffffffffffffffff1602179055506000809054906101000a900473ffffffffffffffffffffffffffffffffffffffff1673ffffffffffffffffffffffffffffffffffffffff16600073ffffffffffffffffffffffffffffffffffffffff167f8be0079c531659141344cd1fd0a4f28419497f9722a3daafe3b4186f6b6457e060405160405180910390a36100da565b600033905090565b612417806100e96000396000f3fe6080604052600436106101095760003560e01c80638f32d59b11610095578063cc2078e111610064578063cc2078e114610930578063e13f8d661461098b578063f2fde38b146109f4578063f8b2cb4f14610a45578063fb192b1a14610aaa57610109565b80638f32d59b146104465780639c38f65f14610475578063b28064d814610678578063bfc2faa71461091957610109565b806336d6a6fe116100dc57806336d6a6fe146102b657806362779e151461037b578063715018a6146103855780637d55b3e31461039c5780638da5cb5b146103ef57610109565b8063177ead101461010e578063203a410b1461016b57806326ff9872146101c6578063360a02ba146101f1575b600080fd5b34801561011a57600080fd5b506101696004803603604081101561013157600080fd5b81019080803573ffffffffffffffffffffffffffffffffffffffff169060200190929190803515159060200190929190505050610b05565b005b34801561017757600080fd5b506101c46004803603604081101561018e57600080fd5b81019080803573ffffffffffffffffffffffffffffffffffffffff16906020019092919080359060200190929190505050610c4f565b005b3480156101d257600080fd5b506101db610dd5565b6040518082815260200191505060405180910390f35b3480156101fd57600080fd5b506102b46004803603602081101561021457600080fd5b810190808035906020019064010000000081111561023157600080fd5b82018360208201111561024357600080fd5b8035906020019184602083028401116401000000008311171561026557600080fd5b919080806020026020016040519081016040528093929190818152602001838360200280828437600081840152601f19601f820116905080830192505050505050509192919290505050610ddb565b005b3480156102c257600080fd5b50610379600480360360208110156102d957600080fd5b81019080803590602001906401000000008111156102f657600080fd5b82018360208201111561030857600080fd5b8035906020019184602083028401116401000000008311171561032a57600080fd5b919080806020026020016040519081016040528093929190818152602001838360200280828437600081840152601f19601f820116905080830192505050505050509192919290505050610e9c565b005b610383610f5d565b005b34801561039157600080fd5b5061039a61111d565b005b3480156103a857600080fd5b506103d5600480360360208110156103bf57600080fd5b8101908080359060200190929190505050611256565b604051808215151515815260200191505060405180910390f35b3480156103fb57600080fd5b5061040461126b565b604051808273ffffffffffffffffffffffffffffffffffffffff1673ffffffffffffffffffffffffffffffffffffffff16815260200191505060405180910390f35b34801561045257600080fd5b5061045b611294565b604051808215151515815260200191505060405180910390f35b34801561048157600080fd5b506104ae6004803603602081101561049857600080fd5b81019080803590602001909291905050506112f2565b60405180806020018060200180602001806020018615151515815260200185810385528a818151815260200191508051906020019080838360005b838110156105045780820151818401526020810190506104e9565b50505050905090810190601f1680156105315780820380516001836020036101000a031916815260200191505b50858103845289818151815260200191508051906020019080838360005b8381101561056a57808201518184015260208101905061054f565b50505050905090810190601f1680156105975780820380516001836020036101000a031916815260200191505b50858103835288818151815260200191508051906020019080838360005b838110156105d05780820151818401526020810190506105b5565b50505050905090810190601f1680156105fd5780820380516001836020036101000a031916815260200191505b50858103825287818151815260200191508051906020019080838360005b8381101561063657808201518184015260208101905061061b565b50505050905090810190601f1680156106635780820380516001836020036101000a031916815260200191505b50995050505050505050505060405180910390f35b34801561068457600080fd5b506109036004803603608081101561069b57600080fd5b81019080803590602001906401000000008111156106b857600080fd5b8201836020820111156106ca57600080fd5b803590602001918460018302840111640100000000831117156106ec57600080fd5b91908080601f016020809104026020016040519081016040528093929190818152602001838380828437600081840152601f19601f8201169050808301925050505050505091929192908035906020019064010000000081111561074f57600080fd5b82018360208201111561076157600080fd5b8035906020019184600183028401116401000000008311171561078357600080fd5b91908080601f016020809104026020016040519081016040528093929190818152602001838380828437600081840152601f19601f820116905080830192505050505050509192919290803590602001906401000000008111156107e657600080fd5b8201836020820111156107f857600080fd5b8035906020019184600183028401116401000000008311171561081a57600080fd5b91908080601f016020809104026020016040519081016040528093929190818152602001838380828437600081840152601f19601f8201169050808301925050505050505091929192908035906020019064010000000081111561087d57600080fd5b82018360208201111561088f57600080fd5b803590602001918460018302840111640100000000831117156108b157600080fd5b91908080601f016020809104026020016040519081016040528093929190818152602001838380828437600081840152601f19601f820116905080830192505050505050509192919290505050611595565b6040518082815260200191505060405180910390f35b34801561092557600080fd5b5061092e611830565b005b34801561093c57600080fd5b506109896004803603604081101561095357600080fd5b81019080803573ffffffffffffffffffffffffffffffffffffffff169060200190929190803590602001909291905050506118c3565b005b34801561099757600080fd5b506109da600480360360208110156109ae57600080fd5b81019080803573ffffffffffffffffffffffffffffffffffffffff169060200190929190505050611af7565b604051808215151515815260200191505060405180910390f35b348015610a0057600080fd5b50610a4360048036036020811015610a1757600080fd5b81019080803573ffffffffffffffffffffffffffffffffffffffff169060200190929190505050611c3e565b005b348015610a5157600080fd5b50610a9460048036036020811015610a6857600080fd5b81019080803573ffffffffffffffffffffffffffffffffffffffff169060200190929190505050611cc4565b6040518082815260200191505060405180910390f35b348015610ab657600080fd5b50610b0360048036036040811015610acd57600080fd5b81019080803573ffffffffffffffffffffffffffffffffffffffff16906020019092919080359060200190929190505050611ce5565b005b610b19336002611f1990919063ffffffff16565b610b8b576040517f08c379a000000000000000000000000000000000000000000000000000000000815260040180806020018281038252601a8152602001807f444f4553204e4f542048415645205445414348455220524f4c4500000000000081525060200191505060405180910390fd5b610b9f826003611f1990919063ffffffff16565b610bf4576040517f08c379a00000000000000000000000000000000000000000000000000000000081526004018080602001828103825260218152602001806123886021913960400191505060405180910390fd5b80600760008473ffffffffffffffffffffffffffffffffffffffff1673ffffffffffffffffffffffffffffffffffffffff16815260200190815260200160002060006101000a81548160ff0219169083151502179055505050565b610c57611294565b610cc9576040517f08c379a00000000000000000000000000000000000000000000000000000000081526004018080602001828103825260208152602001807f4f776e61626c653a2063616c6c6572206973206e6f7420746865206f776e657281525060200191505060405180910390fd5b81600073ffffffffffffffffffffffffffffffffffffffff168173ffffffffffffffffffffffffffffffffffffffff161415610d50576040517f08c379a00000000000000000000000000000000000000000000000000000000081526004018080602001828103825260228152602001806122f56022913960400191505060405180910390fd5b610d64836001611ff790919063ffffffff16565b60016005600084815260200190815260200160002060050160008573ffffffffffffffffffffffffffffffffffffffff1673ffffffffffffffffffffffffffffffffffffffff16815260200190815260200160002060006101000a81548160ff021916908315150217905550505050565b60045481565b610de3611294565b610e55576040517f08c379a00000000000000000000000000000000000000000000000000000000081526004018080602001828103825260208152602001807f4f776e61626c653a2063616c6c6572206973206e6f7420746865206f776e657281525060200191505060405180910390fd5b60008090505b8151811015610e9857610e8b828281518110610e7357fe5b60200260200101516002611ff790919063ffffffff16565b8080600101915050610e5b565b5050565b610ea4611294565b610f16576040517f08c379a00000000000000000000000000000000000000000000000000000000081526004018080602001828103825260208152602001807f4f776e61626c653a2063616c6c6572206973206e6f7420746865206f776e657281525060200191505060405180910390fd5b60008090505b8151811015610f5957610f4c828281518110610f3457fe5b60200260200101516003611ff790919063ffffffff16565b8080600101915050610f1c565b5050565b610f71336003611f1990919063ffffffff16565b610fe3576040517f08c379a000000000000000000000000000000000000000000000000000000000815260040180806020018281038252601a8152602001807f444f4553204e4f5420484156452053545544454e5420524f4c4500000000000081525060200191505060405180910390fd5b3073ffffffffffffffffffffffffffffffffffffffff16637d55b3e3346040518263ffffffff1660e01b81526004018082815260200191505060206040518083038186803b15801561103457600080fd5b505afa158015611048573d6000803e3d6000fd5b505050506040513d602081101561105e57600080fd5b81019080805190602001909291905050501561111b5761107c61126b565b73ffffffffffffffffffffffffffffffffffffffff166108fc349081150290604051600060405180830381858888f193505050501580156110c1573d6000803e3d6000fd5b506001600660003373ffffffffffffffffffffffffffffffffffffffff1673ffffffffffffffffffffffffffffffffffffffff16815260200190815260200160002060006101000a81548160ff0219169083151502179055505b565b611125611294565b611197576040517f08c379a00000000000000000000000000000000000000000000000000000000081526004018080602001828103825260208152602001807f4f776e61626c653a2063616c6c6572206973206e6f7420746865206f776e657281525060200191505060405180910390fd5b600073ffffffffffffffffffffffffffffffffffffffff166000809054906101000a900473ffffffffffffffffffffffffffffffffffffffff1673ffffffffffffffffffffffffffffffffffffffff167f8be0079c531659141344cd1fd0a4f28419497f9722a3daafe3b4186f6b6457e060405160405180910390a360008060006101000a81548173ffffffffffffffffffffffffffffffffffffffff021916908373ffffffffffffffffffffffffffffffffffffffff160217905550565b6000673782dace9d9000008210159050919050565b60008060009054906101000a900473ffffffffffffffffffffffffffffffffffffffff16905090565b60008060009054906101000a900473ffffffffffffffffffffffffffffffffffffffff1673ffffffffffffffffffffffffffffffffffffffff166112d66120d2565b73ffffffffffffffffffffffffffffffffffffffff1614905090565b6005602052806000526040600020600091509050806000018054600181600116156101000203166002900480601f01602080910402602001604051908101604052809291908181526020018280546001816001161561010002031660029004801561139e5780601f106113735761010080835404028352916020019161139e565b820191906000526020600020905b81548152906001019060200180831161138157829003601f168201915b505050505090806001018054600181600116156101000203166002900480601f01602080910402602001604051908101604052809291908181526020018280546001816001161561010002031660029004801561143c5780601f106114115761010080835404028352916020019161143c565b820191906000526020600020905b81548152906001019060200180831161141f57829003601f168201915b505050505090806002018054600181600116156101000203166002900480601f0160208091040260200160405190810160405280929190818152602001828054600181600116156101000203166002900480156114da5780601f106114af576101008083540402835291602001916114da565b820191906000526020600020905b8154815290600101906020018083116114bd57829003601f168201915b505050505090806003018054600181600116156101000203166002900480601f0160208091040260200160405190810160405280929190818152602001828054600181600116156101000203166002900480156115785780601f1061154d57610100808354040283529160200191611578565b820191906000526020600020905b81548152906001019060200180831161155b57829003601f168201915b5050505050908060040160009054906101000a900460ff16905085565b600061159f611294565b611611576040517f08c379a00000000000000000000000000000000000000000000000000000000081526004018080602001828103825260208152602001807f4f776e61626c653a2063616c6c6572206973206e6f7420746865206f776e657281525060200191505060405180910390fd5b61161961221e565b858160000181905250848160200181905250838160400181905250828160600181905250600181608001901515908115158152505080600560006004548152602001908152602001600020600082015181600001908051906020019061168092919061224f565b50602082015181600101908051906020019061169d92919061224f565b5060408201518160020190805190602001906116ba92919061224f565b5060608201518160030190805190602001906116d792919061224f565b5060808201518160040160006101000a81548160ff02191690831515021790555090505060016004600082825401925050819055507f17bd20564888962589be0906f760255071a0c85d66584f4e1f6489591c14f83c8686600454604051808060200180602001848152602001838103835286818151815260200191508051906020019080838360005b8381101561177c578082015181840152602081019050611761565b50505050905090810190601f1680156117a95780820380516001836020036101000a031916815260200191505b50838103825285818151815260200191508051906020019080838360005b838110156117e25780820151818401526020810190506117c7565b50505050905090810190601f16801561180f5780820380516001836020036101000a031916815260200191505b509550505050505060405180910390a1600160045403915050949350505050565b611838611294565b6118aa576040517f08c379a00000000000000000000000000000000000000000000000000000000081526004018080602001828103825260208152602001807f4f776e61626c653a2063616c6c6572206973206e6f7420746865206f776e657281525060200191505060405180910390fd5b3373ffffffffffffffffffffffffffffffffffffffff16ff5b81600073ffffffffffffffffffffffffffffffffffffffff168173ffffffffffffffffffffffffffffffffffffffff16141561194a576040517f08c379a00000000000000000000000000000000000000000000000000000000081526004018080602001828103825260228152602001806122f56022913960400191505060405180910390fd5b81600115156005600083815260200190815260200160002060050160003373ffffffffffffffffffffffffffffffffffffffff1673ffffffffffffffffffffffffffffffffffffffff16815260200190815260200160002060009054906101000a900460ff16151514611a08576040517f08c379a00000000000000000000000000000000000000000000000000000000081526004018080602001828103825260288152602001806123606028913960400191505060405180910390fd5b611a1c336001611f1990919063ffffffff16565b611a71576040517f08c379a000000000000000000000000000000000000000000000000000000000815260040180806020018281038252602381526020018061233d6023913960400191505060405180910390fd5b611a85846003611ff790919063ffffffff16565b60016005600085815260200190815260200160002060070160008673ffffffffffffffffffffffffffffffffffffffff1673ffffffffffffffffffffffffffffffffffffffff16815260200190815260200160002060006101000a81548160ff02191690831515021790555050505050565b600081600073ffffffffffffffffffffffffffffffffffffffff168173ffffffffffffffffffffffffffffffffffffffff161415611b80576040517f08c379a00000000000000000000000000000000000000000000000000000000081526004018080602001828103825260228152602001806122f56022913960400191505060405180910390fd5b611b94836003611f1990919063ffffffff16565b611be9576040517f08c379a00000000000000000000000000000000000000000000000000000000081526004018080602001828103825260218152602001806123cb6021913960400191505060405180910390fd5b600660008473ffffffffffffffffffffffffffffffffffffffff1673ffffffffffffffffffffffffffffffffffffffff16815260200190815260200160002060009054906101000a900460ff16915050919050565b611c46611294565b611cb8576040517f08c379a00000000000000000000000000000000000000000000000000000000081526004018080602001828103825260208152602001807f4f776e61626c653a2063616c6c6572206973206e6f7420746865206f776e657281525060200191505060405180910390fd5b611cc1816120da565b50565b60008173ffffffffffffffffffffffffffffffffffffffff16319050919050565b81600073ffffffffffffffffffffffffffffffffffffffff168173ffffffffffffffffffffffffffffffffffffffff161415611d6c576040517f08c379a00000000000000000000000000000000000000000000000000000000081526004018080602001828103825260228152602001806122f56022913960400191505060405180910390fd5b81600115156005600083815260200190815260200160002060050160003373ffffffffffffffffffffffffffffffffffffffff1673ffffffffffffffffffffffffffffffffffffffff16815260200190815260200160002060009054906101000a900460ff16151514611e2a576040517f08c379a00000000000000000000000000000000000000000000000000000000081526004018080602001828103825260288152602001806123606028913960400191505060405180910390fd5b611e3e336001611f1990919063ffffffff16565b611e93576040517f08c379a000000000000000000000000000000000000000000000000000000000815260040180806020018281038252602381526020018061233d6023913960400191505060405180910390fd5b611ea7846002611ff790919063ffffffff16565b60016005600085815260200190815260200160002060060160008673ffffffffffffffffffffffffffffffffffffffff1673ffffffffffffffffffffffffffffffffffffffff16815260200190815260200160002060006101000a81548160ff02191690831515021790555050505050565b60008073ffffffffffffffffffffffffffffffffffffffff168273ffffffffffffffffffffffffffffffffffffffff161415611fa0576040517f08c379a00000000000000000000000000000000000000000000000000000000081526004018080602001828103825260228152602001806123a96022913960400191505060405180910390fd5b8260000160008373ffffffffffffffffffffffffffffffffffffffff1673ffffffffffffffffffffffffffffffffffffffff16815260200190815260200160002060009054906101000a900460ff16905092915050565b6120018282611f19565b15612074576040517f08c379a000000000000000000000000000000000000000000000000000000000815260040180806020018281038252601f8152602001807f526f6c65733a206163636f756e7420616c72656164792068617320726f6c650081525060200191505060405180910390fd5b60018260000160008373ffffffffffffffffffffffffffffffffffffffff1673ffffffffffffffffffffffffffffffffffffffff16815260200190815260200160002060006101000a81548160ff0219169083151502179055505050565b600033905090565b600073ffffffffffffffffffffffffffffffffffffffff168173ffffffffffffffffffffffffffffffffffffffff161415612160576040517f08c379a00000000000000000000000000000000000000000000000000000000081526004018080602001828103825260268152602001806123176026913960400191505060405180910390fd5b8073ffffffffffffffffffffffffffffffffffffffff166000809054906101000a900473ffffffffffffffffffffffffffffffffffffffff1673ffffffffffffffffffffffffffffffffffffffff167f8be0079c531659141344cd1fd0a4f28419497f9722a3daafe3b4186f6b6457e060405160405180910390a3806000806101000a81548173ffffffffffffffffffffffffffffffffffffffff021916908373ffffffffffffffffffffffffffffffffffffffff16021790555050565b6040518060a00160405280606081526020016060815260200160608152602001606081526020016000151581525090565b828054600181600116156101000203166002900490600052602060002090601f016020900481019282601f1061229057805160ff19168380011785556122be565b828001600101855582156122be579182015b828111156122bd5782518255916020019190600101906122a2565b5b5090506122cb91906122cf565b5090565b6122f191905b808211156122ed5760008160009055506001016122d5565b5090565b9056fe414444524553532043414e4e4f5420424520544845205a45524f20414444524553534f776e61626c653a206e6577206f776e657220697320746865207a65726f2061646472657373444f4553204e4f54204841564520554e4956455253495459204f574e455220524f4c45444f4553204e4f542042454c4f4e4720544f2054484520554e4956455253495459204f574e455253414444524553532050524f5649444544204953204e4f5420412053545544454e54526f6c65733a206163636f756e7420697320746865207a65726f206164647265737350726f7669646564206163636f756e74206973206e6f7420612073747564656e74a165627a7a72305820823faf30c02904a71ed740ecebcc7cab5f9dda20793c26ca18bfeb6d6a6a87ac0029",
  "source": "pragma solidity ^0.5.0;\r\n\r\nimport \"openzeppelin-solidity/contracts/access/Roles.sol\";\r\nimport \"openzeppelin-solidity/contracts/ownership/Ownable.sol\";\r\n\r\ncontract ClassContract is Ownable {\r\n    using Roles for Roles.Role; // We want to use the Roles library\r\n    Roles.Role universityOwners; //Stores University owner Roles\r\n    Roles.Role teachers; // Stores teacher Roles\r\n    Roles.Role students; // Stores student Roles;\r\n\r\n\r\n    uint public universityIdGenerator;\r\n\r\n    mapping (uint => University) public universities; // Mapping to keep track of the Universities\r\n    mapping (address => bool) studentFees; // Mapping to keep track if student has paid fees or not\r\n    mapping (address => bool) grades;       // Mapping to keep track of studets' grades\r\n\r\n    struct University {\r\n        string name;\r\n        string description;\r\n        string website;\r\n        string phoneNumber;\r\n        bool open;\r\n        mapping (address => bool) owners;\r\n        mapping (address => bool) teachers;\r\n        mapping (address => bool) students;\r\n    }\r\n\r\n    // Events\r\n    event LogUniversityAdded(string name, string desc, uint universityId);\r\n\r\n    // Modifiers\r\n    modifier validAddress(address _address) {\r\n        require(_address != address(0), \"ADDRESS CANNOT BE THE ZERO ADDRESS\");\r\n        _;\r\n    }\r\n\r\n    modifier ownerAtUniversity(uint universityId) {\r\n        require((universities[universityId].owners[msg.sender] == true), \"DOES NOT BELONG TO THE UNIVERSITY OWNERS\");\r\n        require(universityOwners.has(msg.sender), \"DOES NOT HAVE UNIVERSITY OWNER ROLE\");\r\n        _;\r\n    }\r\n\r\n\r\n\r\n    // Add Universities\r\n    function addUniversity(string memory _name, string memory _description, string memory _website, string memory _phoneNumber)\r\n    public onlyOwner\r\n    returns (uint)\r\n    {\r\n        University memory newUniversity;\r\n        newUniversity.name = _name;\r\n        newUniversity.description = _description;\r\n        newUniversity.website = _website;\r\n        newUniversity.phoneNumber = _phoneNumber;\r\n        newUniversity.open = true;\r\n        universities[universityIdGenerator] = newUniversity;\r\n        universityIdGenerator += 1;\r\n\r\n        emit LogUniversityAdded(_name, _description, universityIdGenerator);\r\n        return (universityIdGenerator - 1);\r\n    }\r\n\r\n\r\n    \r\n\r\n    /*\r\n    Roles and membership\r\n    */\r\n\r\n    function addUniversityOwnerRoles(address _ownerAddr, uint universityId)\r\n    public onlyOwner\r\n    validAddress(_ownerAddr)\r\n    {\r\n        universityOwners.add(_ownerAddr);\r\n        universities[universityId].owners[_ownerAddr] = true;\r\n    }\r\n\r\n    function addTeacherRoles(address _teacherAddr, uint universityId) public\r\n    validAddress(_teacherAddr)\r\n    ownerAtUniversity(universityId)\r\n    {\r\n        teachers.add(_teacherAddr);\r\n        universities[universityId].teachers[_teacherAddr] = true;\r\n    }\r\n\r\n    function addStudentRoles(address _studentAddr, uint universityId) public\r\n    validAddress(_studentAddr)\r\n    ownerAtUniversity(universityId)\r\n    {\r\n        students.add(_studentAddr);\r\n        universities[universityId].students[_studentAddr] = true;\r\n    }\r\n\r\n    function addTeacherRoles(address[] memory _teachers) public onlyOwner {\r\n        for(uint i = 0; i < _teachers.length; i++)\r\n        {\r\n            teachers.add(_teachers[i]);\r\n        }\r\n    }\r\n\r\n    function addStudentRoles(address[] memory _students) public onlyOwner\r\n    {\r\n        for(uint j = 0; j < _students.length; j++)\r\n        {\r\n            students.add(_students[j]);\r\n        }\r\n    }\r\n\r\n    function areFeesEnough(uint amount) external pure returns (bool)\r\n    {\r\n        return amount >= 4 ether;\r\n\r\n    }\r\n\r\n    function payFees() public payable {\r\n        require(students.has(msg.sender), \"DOES NOT HAVE STUDENT ROLE\");\r\n        if(this.areFeesEnough(msg.value))\r\n        {\r\n            address(uint160(owner())).transfer(msg.value); // Cast to address(uint160) to make address payable\r\n            studentFees[msg.sender] = true;\r\n        }\r\n\r\n    }\r\n\r\n    function gradeStudent(address student, bool grade) public\r\n    {\r\n        require(teachers.has(msg.sender), \"DOES NOT HAVE TEACHER ROLE\");\r\n        require(students.has(student), \"ADDRESS PROVIDED IS NOT A STUDENT\");\r\n        grades[student] = grade;\r\n    }\r\n\r\n    function hasPaidFees(address account) validAddress(account) public view returns (bool) {\r\n        require(students.has(account),\"Provided account is not a student\");\r\n        return studentFees[account];\r\n    }\r\n\r\n\r\n    function terminateClass() onlyOwner public {\r\n        selfdestruct(msg.sender);\r\n    }\r\n\r\n\r\n    function getBalance(address account) public view returns (uint) {\r\n        return account.balance;\r\n    }\r\n\r\n}",
  "sourcePath": "G:/Personal/ConsenSys/FinalProject/Test3/contracts/ClassContract.sol",
  "compiler": {
    "name": "solc",
    "version": "0.5.8+commit.23d335f2.Emscripten.clang"
  },
  "schemaVersion": "3.0.17",
  "updatedAt": "2019-11-19T18:16:36.885Z",
  "devdoc": {
    "methods": {
      "isOwner()": {
        "details": "Returns true if the caller is the current owner."
      },
      "owner()": {
        "details": "Returns the address of the current owner."
      },
      "renounceOwnership()": {
        "details": "Leaves the contract without owner. It will not be possible to call `onlyOwner` functions anymore. Can only be called by the current owner.     * NOTE: Renouncing ownership will leave the contract without an owner, thereby removing any functionality that is only available to the owner."
      },
      "transferOwnership(address)": {
        "details": "Transfers ownership of the contract to a new account (`newOwner`). Can only be called by the current owner."
      }
    }
  },
  "userdoc": {
    "methods": {}
  }
}